{
  "contractName": "ERC721Defi",
  "abi": [
    {
      "inputs": [
        {
          "internalType": "string",
          "name": "_tokenName",
          "type": "string"
        },
        {
          "internalType": "string",
          "name": "_tokenSymbol",
          "type": "string"
        },
        {
          "internalType": "contract ISuperToken",
          "name": "cashToken",
          "type": "address"
        },
        {
          "internalType": "contract ISuperfluid",
          "name": "host",
          "type": "address"
        },
        {
          "internalType": "contract IConstantFlowAgreementV1",
          "name": "cfa",
          "type": "address"
        }
      ],
      "stateMutability": "nonpayable",
      "type": "constructor"
    },
    {
      "anonymous": false,
      "inputs": [
        {
          "indexed": true,
          "internalType": "address",
          "name": "owner",
          "type": "address"
        },
        {
          "indexed": true,
          "internalType": "address",
          "name": "approved",
          "type": "address"
        },
        {
          "indexed": true,
          "internalType": "uint256",
          "name": "tokenId",
          "type": "uint256"
        }
      ],
      "name": "Approval",
      "type": "event"
    },
    {
      "anonymous": false,
      "inputs": [
        {
          "indexed": true,
          "internalType": "address",
          "name": "owner",
          "type": "address"
        },
        {
          "indexed": true,
          "internalType": "address",
          "name": "operator",
          "type": "address"
        },
        {
          "indexed": false,
          "internalType": "bool",
          "name": "approved",
          "type": "bool"
        }
      ],
      "name": "ApprovalForAll",
      "type": "event"
    },
    {
      "anonymous": false,
      "inputs": [
        {
          "indexed": true,
          "internalType": "address",
          "name": "previousOwner",
          "type": "address"
        },
        {
          "indexed": true,
          "internalType": "address",
          "name": "newOwner",
          "type": "address"
        }
      ],
      "name": "OwnershipTransferred",
      "type": "event"
    },
    {
      "anonymous": false,
      "inputs": [
        {
          "indexed": true,
          "internalType": "address",
          "name": "from",
          "type": "address"
        },
        {
          "indexed": true,
          "internalType": "address",
          "name": "to",
          "type": "address"
        },
        {
          "indexed": true,
          "internalType": "uint256",
          "name": "tokenId",
          "type": "uint256"
        }
      ],
      "name": "Transfer",
      "type": "event"
    },
    {
      "inputs": [
        {
          "internalType": "address",
          "name": "owner",
          "type": "address"
        }
      ],
      "name": "balanceOf",
      "outputs": [
        {
          "internalType": "uint256",
          "name": "",
          "type": "uint256"
        }
      ],
      "stateMutability": "view",
      "type": "function"
    },
    {
      "inputs": [],
      "name": "baseURI",
      "outputs": [
        {
          "internalType": "string",
          "name": "",
          "type": "string"
        }
      ],
      "stateMutability": "view",
      "type": "function"
    },
    {
      "inputs": [
        {
          "internalType": "contract ISuperToken",
          "name": "",
          "type": "address"
        },
        {
          "internalType": "address",
          "name": "",
          "type": "address"
        },
        {
          "internalType": "bytes32",
          "name": "",
          "type": "bytes32"
        },
        {
          "internalType": "bytes",
          "name": "",
          "type": "bytes"
        },
        {
          "internalType": "bytes",
          "name": "",
          "type": "bytes"
        }
      ],
      "name": "beforeAgreementTerminated",
      "outputs": [
        {
          "internalType": "bytes",
          "name": "",
          "type": "bytes"
        }
      ],
      "stateMutability": "view",
      "type": "function"
    },
    {
      "inputs": [
        {
          "internalType": "uint256",
          "name": "tokenId",
          "type": "uint256"
        }
      ],
      "name": "getApproved",
      "outputs": [
        {
          "internalType": "address",
          "name": "",
          "type": "address"
        }
      ],
      "stateMutability": "view",
      "type": "function"
    },
    {
      "inputs": [],
      "name": "name",
      "outputs": [
        {
          "internalType": "string",
          "name": "",
          "type": "string"
        }
      ],
      "stateMutability": "view",
      "type": "function"
    },
    {
      "inputs": [],
      "name": "owner",
      "outputs": [
        {
          "internalType": "address",
          "name": "",
          "type": "address"
        }
      ],
      "stateMutability": "view",
      "type": "function"
    },
    {
      "inputs": [
        {
          "internalType": "uint256",
          "name": "tokenId",
          "type": "uint256"
        }
      ],
      "name": "ownerOf",
      "outputs": [
        {
          "internalType": "address",
          "name": "",
          "type": "address"
        }
      ],
      "stateMutability": "view",
      "type": "function"
    },
    {
      "inputs": [],
      "name": "renounceOwnership",
      "outputs": [],
      "stateMutability": "nonpayable",
      "type": "function"
    },
    {
      "inputs": [
        {
          "internalType": "address",
          "name": "from",
          "type": "address"
        },
        {
          "internalType": "address",
          "name": "to",
          "type": "address"
        },
        {
          "internalType": "uint256",
          "name": "tokenId",
          "type": "uint256"
        }
      ],
      "name": "safeTransferFrom",
      "outputs": [],
      "stateMutability": "nonpayable",
      "type": "function"
    },
    {
      "inputs": [
        {
          "internalType": "address",
          "name": "from",
          "type": "address"
        },
        {
          "internalType": "address",
          "name": "to",
          "type": "address"
        },
        {
          "internalType": "uint256",
          "name": "tokenId",
          "type": "uint256"
        },
        {
          "internalType": "bytes",
          "name": "_data",
          "type": "bytes"
        }
      ],
      "name": "safeTransferFrom",
      "outputs": [],
      "stateMutability": "nonpayable",
      "type": "function"
    },
    {
      "inputs": [
        {
          "internalType": "bytes4",
          "name": "interfaceId",
          "type": "bytes4"
        }
      ],
      "name": "supportsInterface",
      "outputs": [
        {
          "internalType": "bool",
          "name": "",
          "type": "bool"
        }
      ],
      "stateMutability": "view",
      "type": "function"
    },
    {
      "inputs": [],
      "name": "symbol",
      "outputs": [
        {
          "internalType": "string",
          "name": "",
          "type": "string"
        }
      ],
      "stateMutability": "view",
      "type": "function"
    },
    {
      "inputs": [
        {
          "internalType": "uint256",
          "name": "index",
          "type": "uint256"
        }
      ],
      "name": "tokenByIndex",
      "outputs": [
        {
          "internalType": "uint256",
          "name": "",
          "type": "uint256"
        }
      ],
      "stateMutability": "view",
      "type": "function"
    },
    {
      "inputs": [
        {
          "internalType": "address",
          "name": "owner",
          "type": "address"
        },
        {
          "internalType": "uint256",
          "name": "index",
          "type": "uint256"
        }
      ],
      "name": "tokenOfOwnerByIndex",
      "outputs": [
        {
          "internalType": "uint256",
          "name": "",
          "type": "uint256"
        }
      ],
      "stateMutability": "view",
      "type": "function"
    },
    {
      "inputs": [
        {
          "internalType": "uint256",
          "name": "tokenId",
          "type": "uint256"
        }
      ],
      "name": "tokenURI",
      "outputs": [
        {
          "internalType": "string",
          "name": "",
          "type": "string"
        }
      ],
      "stateMutability": "view",
      "type": "function"
    },
    {
      "inputs": [],
      "name": "totalSupply",
      "outputs": [
        {
          "internalType": "uint256",
          "name": "",
          "type": "uint256"
        }
      ],
      "stateMutability": "view",
      "type": "function"
    },
    {
      "inputs": [
        {
          "internalType": "address",
          "name": "from",
          "type": "address"
        },
        {
          "internalType": "address",
          "name": "to",
          "type": "address"
        },
        {
          "internalType": "uint256",
          "name": "tokenId",
          "type": "uint256"
        }
      ],
      "name": "transferFrom",
      "outputs": [],
      "stateMutability": "nonpayable",
      "type": "function"
    },
    {
      "inputs": [
        {
          "internalType": "address",
          "name": "newOwner",
          "type": "address"
        }
      ],
      "name": "transferOwnership",
      "outputs": [],
      "stateMutability": "nonpayable",
      "type": "function"
    },
    {
      "inputs": [
        {
          "internalType": "contract ISuperToken",
          "name": "",
          "type": "address"
        },
        {
          "internalType": "address",
          "name": "",
          "type": "address"
        },
        {
          "internalType": "bytes32",
          "name": "",
          "type": "bytes32"
        },
        {
          "internalType": "bytes",
          "name": "",
          "type": "bytes"
        },
        {
          "internalType": "bytes",
          "name": "ctx",
          "type": "bytes"
        }
      ],
      "name": "beforeAgreementCreated",
      "outputs": [
        {
          "internalType": "bytes",
          "name": "",
          "type": "bytes"
        }
      ],
      "stateMutability": "view",
      "type": "function"
    },
    {
      "inputs": [
        {
          "internalType": "contract ISuperToken",
          "name": "",
          "type": "address"
        },
        {
          "internalType": "address",
          "name": "",
          "type": "address"
        },
        {
          "internalType": "bytes32",
          "name": "",
          "type": "bytes32"
        },
        {
          "internalType": "bytes",
          "name": "",
          "type": "bytes"
        },
        {
          "internalType": "bytes",
          "name": "ctx",
          "type": "bytes"
        }
      ],
      "name": "beforeAgreementUpdated",
      "outputs": [
        {
          "internalType": "bytes",
          "name": "",
          "type": "bytes"
        }
      ],
      "stateMutability": "view",
      "type": "function"
    },
    {
      "inputs": [
        {
          "internalType": "contract ISuperToken",
          "name": "",
          "type": "address"
        },
        {
          "internalType": "address",
          "name": "",
          "type": "address"
        },
        {
          "internalType": "bytes32",
          "name": "",
          "type": "bytes32"
        },
        {
          "internalType": "bytes",
          "name": "agreementData",
          "type": "bytes"
        },
        {
          "internalType": "bytes",
          "name": "",
          "type": "bytes"
        },
        {
          "internalType": "bytes",
          "name": "ctx",
          "type": "bytes"
        }
      ],
      "name": "afterAgreementCreated",
      "outputs": [
        {
          "internalType": "bytes",
          "name": "newCtx",
          "type": "bytes"
        }
      ],
      "stateMutability": "nonpayable",
      "type": "function"
    },
    {
      "inputs": [
        {
          "internalType": "contract ISuperToken",
          "name": "",
          "type": "address"
        },
        {
          "internalType": "address",
          "name": "",
          "type": "address"
        },
        {
          "internalType": "bytes32",
          "name": "",
          "type": "bytes32"
        },
        {
          "internalType": "bytes",
          "name": "agreementData",
          "type": "bytes"
        },
        {
          "internalType": "bytes",
          "name": "",
          "type": "bytes"
        },
        {
          "internalType": "bytes",
          "name": "ctx",
          "type": "bytes"
        }
      ],
      "name": "afterAgreementUpdated",
      "outputs": [
        {
          "internalType": "bytes",
          "name": "newCtx",
          "type": "bytes"
        }
      ],
      "stateMutability": "nonpayable",
      "type": "function"
    },
    {
      "inputs": [
        {
          "internalType": "contract ISuperToken",
          "name": "superToken",
          "type": "address"
        },
        {
          "internalType": "address",
          "name": "agreementClass",
          "type": "address"
        },
        {
          "internalType": "bytes32",
          "name": "agreementId",
          "type": "bytes32"
        },
        {
          "internalType": "bytes",
          "name": "agreementData",
          "type": "bytes"
        },
        {
          "internalType": "bytes",
          "name": "cbdata",
          "type": "bytes"
        },
        {
          "internalType": "bytes",
          "name": "ctx",
          "type": "bytes"
        }
      ],
      "name": "afterAgreementTerminated",
      "outputs": [
        {
          "internalType": "bytes",
          "name": "newCtx",
          "type": "bytes"
        }
      ],
      "stateMutability": "nonpayable",
      "type": "function"
    },
    {
      "inputs": [],
      "name": "getRents",
      "outputs": [
        {
          "internalType": "uint256",
          "name": "",
          "type": "uint256"
        }
      ],
      "stateMutability": "view",
      "type": "function"
    },
    {
      "inputs": [
        {
          "internalType": "uint256",
          "name": "index",
          "type": "uint256"
        }
      ],
      "name": "getRentInfoByTokenId",
      "outputs": [
        {
          "internalType": "uint256",
          "name": "",
          "type": "uint256"
        }
      ],
      "stateMutability": "view",
      "type": "function"
    },
    {
      "inputs": [
        {
          "internalType": "uint256",
          "name": "_id",
          "type": "uint256"
        },
        {
          "internalType": "uint256",
          "name": "_price",
          "type": "uint256"
        }
      ],
      "name": "putForRent",
      "outputs": [],
      "stateMutability": "nonpayable",
      "type": "function"
    },
    {
      "inputs": [],
      "name": "getRentList",
      "outputs": [
        {
          "components": [
            {
              "internalType": "uint256",
              "name": "id",
              "type": "uint256"
            },
            {
              "internalType": "uint256",
              "name": "price",
              "type": "uint256"
            },
            {
              "internalType": "address",
              "name": "owner",
              "type": "address"
            }
          ],
          "internalType": "struct ERC721Defi.RentInfo[]",
          "name": "",
          "type": "tuple[]"
        }
      ],
      "stateMutability": "view",
      "type": "function"
    },
    {
      "inputs": [
        {
          "internalType": "uint256",
          "name": "_tokenId",
          "type": "uint256"
        },
        {
          "internalType": "string",
          "name": "_metadata",
          "type": "string"
        }
      ],
      "name": "mint",
      "outputs": [],
      "stateMutability": "nonpayable",
      "type": "function"
    },
    {
      "inputs": [
        {
          "internalType": "address",
          "name": "to",
          "type": "address"
        },
        {
          "internalType": "uint256",
          "name": "tokenId",
          "type": "uint256"
        }
      ],
      "name": "approve",
      "outputs": [],
      "stateMutability": "nonpayable",
      "type": "function"
    },
    {
      "inputs": [
        {
          "internalType": "address",
          "name": "operator",
          "type": "address"
        },
        {
          "internalType": "bool",
          "name": "approved",
          "type": "bool"
        }
      ],
      "name": "setApprovalForAll",
      "outputs": [],
      "stateMutability": "nonpayable",
      "type": "function"
    },
    {
      "inputs": [
        {
          "internalType": "address",
          "name": "owner",
          "type": "address"
        },
        {
          "internalType": "address",
          "name": "operator",
          "type": "address"
        }
      ],
      "name": "isApprovedForAll",
      "outputs": [
        {
          "internalType": "bool",
          "name": "",
          "type": "bool"
        }
      ],
      "stateMutability": "view",
      "type": "function"
    },
    {
      "inputs": [
        {
          "internalType": "string",
          "name": "_baseUrl",
          "type": "string"
        }
      ],
      "name": "changeBaseUrl",
      "outputs": [],
      "stateMutability": "nonpayable",
      "type": "function"
    }
  ],
  "bytecode": "0x60806040523480156200001157600080fd5b50604051620036623803806200366283398101604081905262000034916200038e565b8484620000486301ffc9a760e01b620001a9565b81516200005d90600590602085019062000247565b5080516200007390600690602084019062000247565b50620000866380ac58cd60e01b620001a9565b62000098635b5e139f60e01b620001a9565b620000aa63780e9d6360e01b620001a9565b5050600a8054336001600160a01b031991821617909155600b805482166001600160a01b0386811691909117909155600c805483168583161790819055600d8054909316848316179092556040516315a722b960e31b8152641000000001929091169063ad3915c8906200012390849060040162000437565b600060405180830381600087803b1580156200013e57600080fd5b505af115801562000153573d6000803e3d6000fd5b505050506200019d6040518060400160405280601581526020017f68747470733a2f2f697066732e696f2f697066732f00000000000000000000008152506200022e60201b60201c565b50505050505062000459565b6001600160e01b0319808216141562000209576040805162461bcd60e51b815260206004820152601c60248201527f4552433136353a20696e76616c696420696e7465726661636520696400000000604482015290519081900360640190fd5b6001600160e01b0319166000908152602081905260409020805460ff19166001179055565b80516200024390600890602084019062000247565b5050565b828054600181600116156101000203166002900490600052602060002090601f0160209004810192826200027f5760008555620002ca565b82601f106200029a57805160ff1916838001178555620002ca565b82800160010185558215620002ca579182015b82811115620002ca578251825591602001919060010190620002ad565b50620002d8929150620002dc565b5090565b5b80821115620002d85760008155600101620002dd565b600082601f83011262000304578081fd5b81516001600160401b03808211156200031957fe5b6040516020601f8401601f19168201810183811183821017156200033957fe5b604052838252858401810187101562000350578485fd5b8492505b8383101562000373578583018101518284018201529182019162000354565b838311156200038457848185840101525b5095945050505050565b600080600080600060a08688031215620003a6578081fd5b85516001600160401b0380821115620003bd578283fd5b620003cb89838a01620002f3565b96506020880151915080821115620003e1578283fd5b50620003f088828901620002f3565b9450506040860151620004038162000440565b6060870151909350620004168162000440565b6080870151909250620004298162000440565b809150509295509295909350565b90815260200190565b6001600160a01b03811681146200045657600080fd5b50565b6131f980620004696000396000f3fe608060405234801561001057600080fd5b50600436106101f05760003560e01c80636c0360eb1161010f5780639f05434c116100a2578063d86ed3e511610071578063d86ed3e5146103ea578063e063da38146103fd578063e985e9c514610410578063f2fde38b14610423576101f0565b80639f05434c1461039c578063a22cb465146103b1578063b88d4fde146103c4578063c87b56dd146103d7576101f0565b806377097fc8116100de57806377097fc814610379578063884d1f40146102b65780638da5cb5b1461038c57806395d89b4114610394576101f0565b80636c0360eb146103435780636e8f03631461034b57806370a082311461035e578063715018a614610371576101f0565b806330d9c915116101875780634f6ccce7116101565780634f6ccce7146102f757806353c11f991461030a5780635f9e7d771461031d5780636352211e14610330576101f0565b806330d9c915146102b65780633c5ea0f3146102c957806342842e0e146102d1578063483f9619146102e4576101f0565b806318160ddd116101c357806318160ddd14610268578063230dbd291461027d57806323b872dd146102905780632f745c59146102a3576101f0565b806301ffc9a7146101f557806306fdde031461021e578063081812fc14610233578063095ea7b314610253575b600080fd5b61020861020336600461278e565b610436565b6040516102159190612c53565b60405180910390f35b610226610459565b6040516102159190612c72565b610246610241366004612ab5565b6104ef565b6040516102159190612bdd565b61026661026136600461274b565b610551565b005b61027061059d565b6040516102159190612eb8565b61022661028b3660046128a7565b6105a3565b61026661029e36600461265d565b6105d2565b6102706102b136600461274b565b610627565b6102266102c436600461280b565b61065f565b610270610676565b6102666102df36600461265d565b610689565b6102666102f23660046129a4565b6106a4565b610270610305366004612ab5565b61070f565b6102266103183660046128a7565b610730565b61022661032b36600461280b565b6107d8565b61024661033e366004612ab5565b610811565b61022661082c565b610266610359366004612b43565b61088d565b61027061036c3660046125f7565b61097e565b6102666109e1565b610266610387366004612b08565b610a8a565b610246610a9e565b610226610aad565b6103a4610b0e565b6040516102159190612bf1565b6102666103bf36600461271a565b610b90565b6102666103d236600461269d565b610c1c565b6102266103e5366004612ab5565b610c6d565b6102266103f83660046128a7565b610d94565b61027061040b366004612ab5565b610dcf565b61020861041e36600461264b565b610dea565b6102666104313660046125f7565b610f1b565b6001600160e01b0319811660009081526020819052604090205460ff165b919050565b60058054604080516020601f60026000196101006001881615020190951694909404938401819004810282018101909252828152606093909290918301828280156104e55780601f106104ba576101008083540402835291602001916104e5565b820191906000526020600020905b8154815290600101906020018083116104c857829003601f168201915b5050505050905090565b60006104fa8261101b565b6105355760405162461bcd60e51b815260040180806020018281038252602c8152602001806130c2602c913960400191505060405180910390fd5b506000908152600360205260409020546001600160a01b031690565b6000818152600e60205260409020546001600160a01b03161561058f5760405162461bcd60e51b815260040161058690612e50565b60405180910390fd5b6105998282611038565b5050565b60095490565b606060006105b387890189612613565b5090506105c18484836110f7565b9150505b9998505050505050505050565b6105dc3382611223565b6106175760405162461bcd60e51b81526004018080602001828103825260318152602001806131936031913960400191505060405180910390fd5b6106228383836112c7565b505050565b6001600160a01b038216600090815260016020526040812080548390811061064b57fe5b906000526020600020015490505b92915050565b606061066b8383611307565b979650505050505050565b336000908152600f602052604090205490565b61062283838360405180602001604052806000815250610c1c565b600a546001600160a01b03163314610703576040805162461bcd60e51b815260206004820181905260248201527f4f776e61626c653a2063616c6c6572206973206e6f7420746865206f776e6572604482015290519081900360640190fd5b61070c8161140c565b50565b60006009828154811061071e57fe5b90600052602060002001549050919050565b600c546060906001600160a01b0316331461075d5760405162461bcd60e51b815260040161058690612e75565b6107668a61141f565b1580610778575061077689611433565b155b156107bc5782828080601f0160208091040260200160405190810160405280939291908181526020018383808284376000920191909152509293506105c592505050565b60006107ca87890189612613565b5090506105c18484836114ce565b606060405162461bcd60e51b8152600401808060200182810382526033815260200180612fb76033913960400191505060405180910390fd5b6000908152600260205260409020546001600160a01b031690565b60088054604080516020601f60026000196101006001881615020190951694909404938401819004810282018101909252828152606093909290918301828280156104e55780601f106104ba576101008083540402835291602001916104e5565b3361089783610811565b6001600160a01b0316146108bd5760405162461bcd60e51b815260040161058690612da3565b6040805160608101825292835260208301918252339083019081526010805460018101825560009190915292517f1b6847dc741a1b0cd08d278845f9d819d87b734759afb55fe2de5cb82a9ae67260039094029384015590517f1b6847dc741a1b0cd08d278845f9d819d87b734759afb55fe2de5cb82a9ae673830155517f1b6847dc741a1b0cd08d278845f9d819d87b734759afb55fe2de5cb82a9ae67490910180546001600160a01b0319166001600160a01b03909216919091179055565b60006001600160a01b0382166109c55760405162461bcd60e51b815260040180806020018281038252602a815260200180613098602a913960400191505060405180910390fd5b506001600160a01b031660009081526001602052604090205490565b600a546001600160a01b03163314610a40576040805162461bcd60e51b815260206004820181905260248201527f4f776e61626c653a2063616c6c6572206973206e6f7420746865206f776e6572604482015290519081900360640190fd5b600a546040516000916001600160a01b0316907f8be0079c531659141344cd1fd0a4f28419497f9722a3daafe3b4186f6b6457e0908390a3600a80546001600160a01b0319169055565b610a94338361162a565b6105998282611793565b600a546001600160a01b031690565b60068054604080516020601f60026000196101006001881615020190951694909404938401819004810282018101909252828152606093909290918301828280156104e55780601f106104ba576101008083540402835291602001916104e5565b60606010805480602002602001604051908101604052809291908181526020016000905b82821015610b87576000848152602090819020604080516060810182526003860290920180548352600180820154848601526002909101546001600160a01b0316918301919091529083529092019101610b32565b50505050905090565b60016000610b9d3361097e565b905060005b81811015610be9576000610bb63383610627565b6000818152600e60205260409020549091506001600160a01b031615610be0576000935050610be9565b50600101610ba2565b50600182151514610c0c5760405162461bcd60e51b815260040161058690612e19565b610c1684846117f6565b50505050565b610c263383611223565b610c615760405162461bcd60e51b81526004018080602001828103825260318152602001806131936031913960400191505060405180910390fd5b610c16848484846118c2565b6060610c788261101b565b610cb35760405162461bcd60e51b815260040180806020018281038252602f815260200180613143602f913960400191505060405180910390fd5b610cbb61082c565b600760008481526020019081526020016000206040516020018083805190602001908083835b60208310610d005780518252601f199092019160209182019101610ce1565b6001836020036101000a03801982511681845116808217855250505050505090500182805460018160011615610100020316600290048015610d795780601f10610d57576101008083540402835291820191610d79565b820191906000526020600020905b815481529060010190602001808311610d65575b505060408051601f1981840301815291905295945050505050565b600c546060906001600160a01b03163314610dc15760405162461bcd60e51b815260040161058690612e75565b60006105b387890189612613565b336000908152600f6020526040812080548390811061071e57fe5b600046816001821415610e12575073a5409ec958c83c3f309868babaca7c86dcb077c1610e32565b8160041415610e32575073f57b2c51ded3a29e6891aba85459d600256cf3175b6001600160a01b03811615610e595760405162461bcd60e51b815260040161058690612d80565b6001600160a01b03811615610f085760405163c455279160e01b815281906001600160a01b03808716919083169063c455279190610e9b908a90600401612bdd565b60206040518083038186803b158015610eb357600080fd5b505afa158015610ec7573d6000803e3d6000fd5b505050506040513d601f19601f82011682018060405250810190610eeb919061296e565b6001600160a01b03161415610f065760019350505050610659565b505b610f128585611914565b95945050505050565b600a546001600160a01b03163314610f7a576040805162461bcd60e51b815260206004820181905260248201527f4f776e61626c653a2063616c6c6572206973206e6f7420746865206f776e6572604482015290519081900360640190fd5b6001600160a01b038116610fbf5760405162461bcd60e51b8152600401808060200182810382526026815260200180612f916026913960400191505060405180910390fd5b600a546040516001600160a01b038084169216907f8be0079c531659141344cd1fd0a4f28419497f9722a3daafe3b4186f6b6457e090600090a3600a80546001600160a01b0319166001600160a01b0392909216919091179055565b6000908152600260205260409020546001600160a01b0316151590565b600061104382610811565b9050806001600160a01b0316836001600160a01b031614156110965760405162461bcd60e51b81526004018080602001828103825260218152602001806131726021913960400191505060405180910390fd5b336001600160a01b03821614806110b257506110b28133610dea565b6110ed5760405162461bcd60e51b81526004018080602001828103825260388152602001806130606038913960400191505060405180910390fd5b6106228383611942565b600c54604051631fb6491d60e11b81526060916000916001600160a01b0390911690633f6c923a9061112f9088908890600401612c5e565b60006040518083038186803b15801561114757600080fd5b505afa15801561115b573d6000803e3d6000fd5b505050506040513d6000823e601f3d908101601f1916820160405261118391908101906129d7565b60a001519050600080828060200190518101906111a09190612b64565b9150915060006111af83610811565b6001600160a01b038781166000908152600f60209081526040808320805460018101825590845282842001889055878352600e909152902080546001600160a01b03191691831691909117905590506112098187856119b0565b611215888888846119bb565b9450505050505b9392505050565b600061122e8261101b565b6112695760405162461bcd60e51b815260040180806020018281038252602c815260200180613034602c913960400191505060405180910390fd5b600061127483610811565b9050806001600160a01b0316846001600160a01b031614806112af5750836001600160a01b03166112a4846104ef565b6001600160a01b0316145b806112bf57506112bf8185610dea565b949350505050565b6000818152600e60205260409020546001600160a01b0316156112fc5760405162461bcd60e51b815260040161058690612e50565b610622838383611ce2565b600c54604051631fb6491d60e11b81526000916001600160a01b031690633f6c923a9061133a9086908690600401612c5e565b60006040518083038186803b15801561135257600080fd5b505afa158015611366573d6000803e3d6000fd5b505050506040513d6000823e601f3d908101601f1916820160405261138e91908101906129d7565b60a001519050600080828060200190518101906113ab9190612b64565b6000828152600e602052604090205491935091506001600160a01b0316156113e55760405162461bcd60e51b815260040161058690612dee565b600081116114055760405162461bcd60e51b815260040161058690612dc6565b5050505050565b805161059990600890602084019061241c565b600b546001600160a01b0390811691161490565b60007fa9214cc96615e0085d3bb077758db69497dc2dce3b2b1e97bc93c3d18d83efd3826001600160a01b0316637730599e6040518163ffffffff1660e01b815260040160206040518083038186803b15801561148f57600080fd5b505afa1580156114a3573d6000803e3d6000fd5b505050506040513d601f19601f820116820180604052508101906114c79190612776565b1492915050565b6001600160a01b0381166000908152600f60209081526040808320805482518185028101850190935280835260609493849392919083018282801561153257602002820191906000526020600020905b81548152602001906001019080831161151e575b5050505050905060005b81518110156115f357600e600083838151811061155557fe5b6020026020010151815260200190815260200160002060009054906101000a90046001600160a01b031692506000600e600084848151811061159357fe5b6020026020010151815260200190815260200160002060006101000a8154816001600160a01b0302191690836001600160a01b031602179055506115eb85848484815181106115de57fe5b60200260200101516119b0565b60010161153c565b506001600160a01b0384166000908152600f60205260408120611615916124a8565b611620868684611e5f565b9695505050505050565b6001600160a01b038216611685576040805162461bcd60e51b815260206004820181905260248201527f4552433732313a206d696e7420746f20746865207a65726f2061646472657373604482015290519081900360640190fd5b61168e8161101b565b156116e0576040805162461bcd60e51b815260206004820152601c60248201527f4552433732313a20746f6b656e20616c7265616479206d696e74656400000000604482015290519081900360640190fd5b6116ec60008383610622565b6001600160a01b03821660008181526001602081815260408084208054808501825590855282852001869055858452600290915280832080546001600160a01b0319168517905560098054928301815583527f6e1540171b6c0c960b71a7020d9f60077f6af931a8bbf590da0223dacf75c7af90910184905551839291907fddf252ad1be2c89b69c2b068fc378daa952ba7f163c4a11628f55a4df523b3ef908290a45050565b61179c8261101b565b6117d75760405162461bcd60e51b815260040180806020018281038252602c8152602001806130ee602c913960400191505060405180910390fd5b600082815260076020908152604090912082516106229284019061241c565b6001600160a01b038216331415611854576040805162461bcd60e51b815260206004820152601960248201527f4552433732313a20617070726f766520746f2063616c6c657200000000000000604482015290519081900360640190fd5b3360008181526004602090815260408083206001600160a01b03871680855290835292819020805460ff1916861515908117909155815190815290519293927f17307eab39ab6107e8899845ad3d59bd9653f200f220920489ca2b5937696c31929181900390910190a35050565b6118cd8484846112c7565b6118d984848484611f55565b610c165760405162461bcd60e51b8152600401808060200182810382526032815260200180612f5f6032913960400191505060405180910390fd5b6001600160a01b03918216600090815260046020908152604080832093909416825291909152205460ff1690565b600081815260036020526040902080546001600160a01b0319166001600160a01b038416908117909155819061197782610811565b6001600160a01b03167f8c5be1e5ebec7d5bd14f71427d1e84f3dd0314c0f7b2291e5b200ac8c7c3b92560405160405180910390a45050565b6106228383836120b6565b600d54600b5460405163e8e7e2d160e01b81526060926000926001600160a01b039182169263e8e7e2d1926119f69216903090600401612cd9565b60206040518083038186803b158015611a0e57600080fd5b505afa158015611a22573d6000803e3d6000fd5b505050506040513d601f19601f82011682018060405250810190611a46919061298a565b600d54600b54604051631cd43d1160e31b81529293506000926001600160a01b039283169263e6a1e88892611a849291169030908990600401612cf3565b60806040518083038186803b158015611a9c57600080fd5b505afa158015611ab0573d6000803e3d6000fd5b505050506040513d601f19601f82011682018060405250810190611ad49190612acd565b509092505050818101600b81900b611aeb57611cd7565b600b82900b15611be857600c54600d54600b546040805160008152602081019091526001600160a01b0393841693634329d293938116926328104d3160e11b92611b4092909116908b90889060448101612d4a565b60408051601f198184030181529181526020820180516001600160e01b03166001600160e01b03199485161790525160e085901b9092168252611b8a92918d908d90600401612c85565b600060405180830381600087803b158015611ba457600080fd5b505af1158015611bb8573d6000803e3d6000fd5b505050506040513d6000823e601f3d908101601f19168201604052611be091908101906127aa565b509350611cd7565b600c54600d54600b546040805160008152602081019091526001600160a01b0393841693634329d2939381169263317e182f60e11b92611c3392909116908b90889060448101612d4a565b60408051601f198184030181529181526020820180516001600160e01b03166001600160e01b03199485161790525160e085901b9092168252611c7d92918d908d90600401612c85565b600060405180830381600087803b158015611c9757600080fd5b505af1158015611cab573d6000803e3d6000fd5b505050506040513d6000823e601f3d908101601f19168201604052611cd391908101906127aa565b5093505b505050949350505050565b826001600160a01b0316611cf582610811565b6001600160a01b031614611d3a5760405162461bcd60e51b815260040180806020018281038252602981526020018061311a6029913960400191505060405180910390fd5b6001600160a01b038216611d7f5760405162461bcd60e51b8152600401808060200182810382526024815260200180612fea6024913960400191505060405180910390fd5b611d8a838383610622565b611d95600082611942565b6001600160a01b0383166000908152600160205260409020611db7908261215e565b6001600160a01b0380831660008181526001602081815260408084208054808501825590855282852001879055868452600290915280832080546001600160a01b0319168517905560098054928301815583527f6e1540171b6c0c960b71a7020d9f60077f6af931a8bbf590da0223dacf75c7af9091018590555184938716917fddf252ad1be2c89b69c2b068fc378daa952ba7f163c4a11628f55a4df523b3ef91a4505050565b600c54600d54600b546040805160008152602081019091526060936001600160a01b0390811693634329d2939390821692635a5999e360e11b92611eac9216903090899060448101612d16565b60408051601f198184030181529181526020820180516001600160e01b03166001600160e01b03199485161790525160e085901b9092168252611ef6929189908990600401612c85565b600060405180830381600087803b158015611f1057600080fd5b505af1158015611f24573d6000803e3d6000fd5b505050506040513d6000823e601f3d908101601f19168201604052611f4c91908101906127aa565b50949350505050565b6000611f69846001600160a01b0316612176565b611f75575060016112bf565b600061207c63150b7a0260e01b3388878760405160240180856001600160a01b03168152602001846001600160a01b0316815260200183815260200180602001828103825283818151815260200191508051906020019080838360005b83811015611fea578181015183820152602001611fd2565b50505050905090810190601f1680156120175780820380516001836020036101000a031916815260200191505b5095505050505050604051602081830303815290604052906001600160e01b0319166020820180516001600160e01b038381831617835250505050604051806060016040528060328152602001612f5f603291396001600160a01b038816919061217c565b9050600081806020019051602081101561209557600080fd5b50516001600160e01b031916630a85bd0160e11b1492505050949350505050565b826001600160a01b03166120c982610811565b6001600160a01b03161461210e5760405162461bcd60e51b815260040180806020018281038252602981526020018061311a6029913960400191505060405180910390fd5b6001600160a01b0382166121535760405162461bcd60e51b8152600401808060200182810382526024815260200180612fea6024913960400191505060405180910390fd5b611d95838383610622565b600061216a838361218b565b905061062283826121c2565b3b151590565b60606112bf848460008561222d565b6000805b8284828154811061219c57fe5b9060005260206000200154141580156121b55750835481105b1561121c5760010161218f565b815460001901811015612209578181600101815481106121de57fe5b90600052602060002001548282815481106121f557fe5b6000918252602090912001556001016121c2565b8180548061221357fe5b600190038181906000526020600020016000905590555050565b60608247101561226e5760405162461bcd60e51b815260040180806020018281038252602681526020018061300e6026913960400191505060405180910390fd5b61227785612176565b6122c8576040805162461bcd60e51b815260206004820152601d60248201527f416464726573733a2063616c6c20746f206e6f6e2d636f6e7472616374000000604482015290519081900360640190fd5b600080866001600160a01b031685876040518082805190602001908083835b602083106123065780518252601f1990920191602091820191016122e7565b6001836020036101000a03801982511681845116808217855250505050505090500191505060006040518083038185875af1925050503d8060008114612368576040519150601f19603f3d011682016040523d82523d6000602084013e61236d565b606091505b509150915061066b8282866060831561238757508161121c565b8251156123975782518084602001fd5b8160405162461bcd60e51b81526004018080602001828103825283818151815260200191508051906020019080838360005b838110156123e15781810151838201526020016123c9565b50505050905090810190601f16801561240e5780820380516001836020036101000a031916815260200191505b509250505060405180910390fd5b828054600181600116156101000203166002900490600052602060002090601f0160209004810192826124525760008555612498565b82601f1061246b57805160ff1916838001178555612498565b82800160010185558215612498579182015b8281111561249857825182559160200191906001019061247d565b506124a49291506124c2565b5090565b508054600082559060005260206000209081019061070c91905b5b808211156124a457600081556001016124c3565b60006124ea6124e584612ee5565b612ec1565b90508281528383830111156124fe57600080fd5b828260208301376000602084830101529392505050565b805161045481612f33565b805161045481612f48565b60008083601f84011261253c578182fd5b50813567ffffffffffffffff811115612553578182fd5b60208301915083602082850101111561256b57600080fd5b9250929050565b600082601f830112612582578081fd5b81516125906124e582612ee5565b8181528460208386010111156125a4578283fd5b6112bf826020830160208701612f07565b8051600b81900b811461045457600080fd5b600082601f8301126125d7578081fd5b61121c838335602085016124d7565b805160ff8116811461045457600080fd5b600060208284031215612608578081fd5b813561121c81612f33565b60008060408385031215612625578081fd5b823561263081612f33565b9150602083013561264081612f33565b809150509250929050565b60008060408385031215612625578182fd5b600080600060608486031215612671578081fd5b833561267c81612f33565b9250602084013561268c81612f33565b929592945050506040919091013590565b600080600080608085870312156126b2578182fd5b84356126bd81612f33565b935060208501356126cd81612f33565b925060408501359150606085013567ffffffffffffffff8111156126ef578182fd5b8501601f810187136126ff578182fd5b61270e878235602084016124d7565b91505092959194509250565b6000806040838503121561272c578182fd5b823561273781612f33565b915060208301358015158114612640578182fd5b6000806040838503121561275d578182fd5b823561276881612f33565b946020939093013593505050565b600060208284031215612787578081fd5b5051919050565b60006020828403121561279f578081fd5b813561121c81612f48565b600080604083850312156127bc578182fd5b825167ffffffffffffffff808211156127d3578384fd5b6127df86838701612572565b935060208501519150808211156127f4578283fd5b5061280185828601612572565b9150509250929050565b600080600080600080600060a0888a031215612825578485fd5b873561283081612f33565b9650602088013561284081612f33565b955060408801359450606088013567ffffffffffffffff80821115612863578485fd5b61286f8b838c0161252b565b909650945060808a0135915080821115612887578384fd5b506128948a828b0161252b565b989b979a50959850939692959293505050565b600080600080600080600080600060c08a8c0312156128c4578283fd5b89356128cf81612f33565b985060208a01356128df81612f33565b975060408a0135965060608a013567ffffffffffffffff80821115612902578485fd5b61290e8d838e0161252b565b909850965060808c0135915080821115612926578485fd5b6129328d838e0161252b565b909650945060a08c013591508082111561294a578384fd5b506129578c828d0161252b565b915080935050809150509295985092959850929598565b60006020828403121561297f578081fd5b815161121c81612f33565b60006020828403121561299b578081fd5b61121c826125b5565b6000602082840312156129b5578081fd5b813567ffffffffffffffff8111156129cb578182fd5b6112bf848285016125c7565b6000602082840312156129e8578081fd5b815167ffffffffffffffff808211156129ff578283fd5b8184019150610120808387031215612a15578384fd5b612a1e81612ec1565b9050612a29836125e6565b8152612a37602084016125e6565b602082015260408301516040820152612a5260608401612515565b6060820152612a6360808401612520565b608082015260a083015182811115612a79578485fd5b612a8587828601612572565b60a08301525060c0838101519082015260e080840151908201526101009283015192810192909252509392505050565b600060208284031215612ac6578081fd5b5035919050565b60008060008060808587031215612ae2578182fd5b84519350612af2602086016125b5565b6040860151606090960151949790965092505050565b60008060408385031215612b1a578182fd5b82359150602083013567ffffffffffffffff811115612b37578182fd5b612801858286016125c7565b60008060408385031215612b55578182fd5b50508035926020909101359150565b60008060408385031215612b76578182fd5b505080516020909101519092909150565b60008284528282602086013780602084860101526020601f19601f85011685010190509392505050565b60008151808452612bc9816020860160208601612f07565b601f01601f19169290920160200192915050565b6001600160a01b0391909116815260200190565b602080825282518282018190526000919060409081850190868401855b82811015612c465781518051855286810151878601528501516001600160a01b03168585015260609093019290850190600101612c0e565b5091979650505050505050565b901515815260200190565b6000602082526112bf602083018486612b87565b60006020825261121c6020830184612bb1565b6001600160a01b0385168152608060208201819052600090612ca990830186612bb1565b8281038060408501526002825261060f60f31b60208301526040810160608501525061066b604082018587612b87565b6001600160a01b0392831681529116602082015260400190565b6001600160a01b0393841681529183166020830152909116604082015260600190565b6001600160a01b03858116825284811660208301528316604082015260806060820181905260009061162090830184612bb1565b6001600160a01b03858116825284166020820152600b83900b604082015260806060820181905260009061162090830184612bb1565b6020808252600990820152684e6f4164647265737360b81b604082015260600190565b60208082526009908201526827b7363ca7bbb732b960b91b604082015260600190565b6020808252600e908201526d15dc9bdb99d5985b1d5954d95b9d60921b604082015260600190565b602080825260119082015270546f6b656e4e6f74417661696c61626c6560781b604082015260600190565b60208082526018908201527f43616e7443616c6c5769746852656e746564546f6b656e730000000000000000604082015260600190565b6020808252600b908201526a151bdad95b94995b9d195960aa1b604082015260600190565b60208082526023908201527f4e465444656669546f6b656e3a20737570706f7274206f6e6c79206f6e6520686040820152621bdcdd60ea1b606082015260800190565b90815260200190565b60405181810167ffffffffffffffff81118282101715612edd57fe5b604052919050565b600067ffffffffffffffff821115612ef957fe5b50601f01601f191660200190565b60005b83811015612f22578181015183820152602001612f0a565b83811115610c165750506000910152565b6001600160a01b038116811461070c57600080fd5b6001600160e01b03198116811461070c57600080fdfe4552433732313a207472616e7366657220746f206e6f6e20455243373231526563656976657220696d706c656d656e7465724f776e61626c653a206e6577206f776e657220697320746865207a65726f2061646472657373556e737570706f727465642063616c6c6261636b202d20204265666f72652041677265656d656e74205465726d696e617465644552433732313a207472616e7366657220746f20746865207a65726f2061646472657373416464726573733a20696e73756666696369656e742062616c616e636520666f722063616c6c4552433732313a206f70657261746f7220717565727920666f72206e6f6e6578697374656e7420746f6b656e4552433732313a20617070726f76652063616c6c6572206973206e6f74206f776e6572206e6f7220617070726f76656420666f7220616c6c4552433732313a2062616c616e636520717565727920666f7220746865207a65726f20616464726573734552433732313a20617070726f76656420717565727920666f72206e6f6e6578697374656e7420746f6b656e4552433732314d657461646174613a2055524920736574206f66206e6f6e6578697374656e7420746f6b656e4552433732313a207472616e73666572206f6620746f6b656e2074686174206973206e6f74206f776e4552433732314d657461646174613a2055524920717565727920666f72206e6f6e6578697374656e7420746f6b656e4552433732313a20617070726f76616c20746f2063757272656e74206f776e65724552433732313a207472616e736665722063616c6c6572206973206e6f74206f776e6572206e6f7220617070726f766564a2646970667358221220bdbc6ad257bf547f60966a961ee189fde7bf5c63b63d75e1349222befee54ab064736f6c63430007060033",
  "immutableReferences": {},
  "source": "// SPDX-License-Identifier: MIT\r\npragma solidity ^0.7.6;\r\npragma abicoder v2;\r\n\r\n/// @author Jorge Gomes Durn - jgomes79@hotmail.es\r\n/// @title  ERC721Defi - ERC721 for rent integrated with Superfluid\r\n/// @dev    \r\n\r\nimport \"./ERC721.sol\";\r\nimport \"../access/Ownable.sol\";\r\nimport \"../libraries/UintLibrary.sol\";\r\nimport \"../libraries/SafeMath.sol\";\r\n\r\nimport {\r\n    ISuperfluid,\r\n    ISuperToken,\r\n    ISuperAgreement,\r\n    SuperAppDefinitions\r\n} from \"@superfluid-finance/ethereum-contracts/contracts/interfaces/superfluid/ISuperfluid.sol\";\r\n\r\nimport {\r\n    IConstantFlowAgreementV1\r\n} from \"@superfluid-finance/ethereum-contracts/contracts/interfaces/agreements/IConstantFlowAgreementV1.sol\";\r\n\r\nimport {\r\n    SuperAppBase\r\n} from \"@superfluid-finance/ethereum-contracts/contracts/apps/SuperAppBase.sol\";\r\n\r\ncontract OwnableDelegateProxy { }\r\n\r\ncontract ProxyRegistry {\r\n    mapping(address => OwnableDelegateProxy) public proxies;\r\n}\r\n\r\ncontract ERC721Defi is SuperAppBase, ERC721, Ownable {\r\n    using UintLibrary for uint256;\r\n    using SafeMath for uint256;\r\n\r\n    ISuperToken private _cashToken;\r\n    ISuperfluid private _host;\r\n    IConstantFlowAgreementV1  private _cfa;\r\n\r\n    struct RentInfo {\r\n        uint256 id;\r\n        uint256 price;\r\n        address owner;\r\n    }\r\n\r\n    mapping (uint256 => address) private _tokensInfo;\r\n    mapping (address => uint256[]) private _tokenRents;\r\n    RentInfo[] _rentingInfo;\r\n\r\n    constructor (string memory _tokenName, string memory _tokenSymbol, ISuperToken cashToken, ISuperfluid host, IConstantFlowAgreementV1 cfa) ERC721(_tokenName,_tokenSymbol) {\r\n        _cashToken = cashToken;\r\n        _host = host;\r\n        _cfa = cfa;\r\n\r\n        uint256 configWord =\r\n            SuperAppDefinitions.APP_LEVEL_FINAL |\r\n            SuperAppDefinitions.BEFORE_AGREEMENT_TERMINATED_NOOP;\r\n\r\n        _host.registerApp(configWord);\r\n        \r\n        _setBaseURI(\"https://ipfs.io/ipfs/\");\r\n    }\r\n\r\n    /** \r\n        @notice Superfluid specific code\r\n        @dev Modifier that checks message come from Superfluid host\r\n    */\r\n    modifier onlyHost() {\r\n        require(msg.sender == address(_host), \"NFTDefiToken: support only one host\");\r\n        _;\r\n    }\r\n\r\n    /** \r\n        @notice Superfluid specific code\r\n        @dev Modifier that checks token and agreement are valid\r\n    */\r\n    modifier onlyExpected(ISuperToken _superToken, address _agreementClass) {\r\n        require(_isAccepted(_superToken) , \"NFTDefiToken: not accepted tokens\");\r\n        require(_isCFAv1(_agreementClass), \"NFTDefiToken: only CFAv1 supported\");\r\n        _;\r\n    }\r\n\r\n    function _isAccepted(ISuperToken _superToken) private view returns (bool) {\r\n        return address(_superToken) == address(_cashToken);\r\n    }\r\n\r\n    function _isCFAv1(address _agreementClass) private view returns (bool) {\r\n        return ISuperAgreement(_agreementClass).agreementType()\r\n            == keccak256(\"org.superfluid-finance.agreements.ConstantFlowAgreement.v1\");\r\n    }\r\n\r\n    function beforeAgreementCreated(\r\n        ISuperToken /*superToken*/,\r\n        address /*agreementClass*/,\r\n        bytes32 /*agreementId*/,\r\n        bytes calldata /*agreementData*/,\r\n        bytes calldata ctx\r\n    )\r\n        external\r\n        view\r\n        virtual\r\n        override\r\n        returns (bytes memory /*cbdata*/)\r\n    {\r\n        _checkValidRent(ctx);\r\n    }\r\n\r\n    function beforeAgreementUpdated(\r\n        ISuperToken /*superToken*/,\r\n        address /*agreementClass*/,\r\n        bytes32 /*agreementId*/,\r\n        bytes calldata /*agreementData*/,\r\n        bytes calldata ctx\r\n    )\r\n        external\r\n        view\r\n        virtual\r\n        override\r\n        returns (bytes memory /*cbdata*/)\r\n    {\r\n        _checkValidRent(ctx);\r\n    }\r\n\r\n    function afterAgreementCreated(\r\n        ISuperToken /*superToken*/,\r\n        address /*agreementClass*/,\r\n        bytes32 /*agreementId*/,\r\n        bytes calldata agreementData,\r\n        bytes calldata /*cbdata*/,\r\n        bytes calldata ctx\r\n    )\r\n        external override\r\n        onlyHost\r\n        returns(bytes memory newCtx)\r\n    {\r\n        (address sender,) = abi.decode(agreementData, (address, address));\r\n        return _rentToken(ctx, sender);\r\n    }\r\n\r\n    function afterAgreementUpdated(\r\n        ISuperToken /*superToken*/,\r\n        address /*agreementClass*/,\r\n        bytes32 /*agreementId*/,\r\n        bytes calldata agreementData,\r\n        bytes calldata /*cbdata*/,\r\n        bytes calldata ctx\r\n    )\r\n        external\r\n        virtual\r\n        override\r\n        returns (bytes memory newCtx)\r\n    {\r\n        (address sender,) = abi.decode(agreementData, (address, address));\r\n        return _rentToken(ctx, sender);\r\n    }\r\n\r\n    function afterAgreementTerminated(\r\n        ISuperToken superToken,\r\n        address agreementClass,\r\n        bytes32 agreementId,\r\n        bytes calldata agreementData,\r\n        bytes calldata cbdata,\r\n        bytes calldata ctx\r\n    )\r\n        external\r\n        virtual\r\n        override\r\n        onlyHost\r\n        returns(bytes memory newCtx)\r\n    {\r\n        if (!_isAccepted(superToken) || !_isCFAv1(agreementClass)) return ctx;\r\n        (address sender,) = abi.decode(agreementData, (address, address));\r\n\r\n        return _recoverToken(ctx, sender);\r\n    }\r\n\r\n    function _checkValidRent(bytes calldata ctx) internal view {\r\n        bytes memory userData = _host.decodeCtx(ctx).userData;\r\n        (uint256 tokenId, uint256 price) = abi.decode(userData, (uint256, uint256));\r\n        \r\n        require(_tokensInfo[tokenId] == address(0), \"TokenNotAvailable\");\r\n        require(price > 0, \"WrongValueSent\");\r\n    }\r\n\r\n    function _rentToken(\r\n        bytes calldata ctx,\r\n        address sender\r\n    )\r\n        internal\r\n        returns (bytes memory newCtx)\r\n    {\r\n        bytes memory userData = _host.decodeCtx(ctx).userData;\r\n        (uint256 tokenId, uint256 price) = abi.decode(userData, (uint256, uint256));\r\n       \r\n        address renter = ownerOf(tokenId);\r\n        _tokenRents[sender].push(tokenId);\r\n        _tokensInfo[tokenId] = renter;\r\n        _transferForRent(renter, sender, tokenId);\r\n\r\n        return _redirectSuperfluidAgreement(ctx, sender, renter);\r\n    }\r\n\r\n    function _redirectSuperfluidAgreement(bytes calldata ctx, address sender, address renter) internal returns (bytes memory newCtx) {\r\n\r\n        int96 netFlowRate = _cfa.getNetFlow(_cashToken, address(this));\r\n        (,int96 outFlowRate,,) = _cfa.getFlow(_cashToken, address(this), renter);\r\n        int96 inFlowRate = netFlowRate + outFlowRate;\r\n\r\n        if (inFlowRate == int96(0)) {\r\n            // DELETE FLOW. WE ARE DOING THAT IN THE _removeSuperfluidAgreement function. Is it enought???? \r\n        } else if (outFlowRate != int96(0)){\r\n            (newCtx, ) = _host.callAgreementWithContext(\r\n                    _cfa,\r\n                    abi.encodeWithSelector(\r\n                        _cfa.updateFlow.selector,\r\n                        _cashToken,\r\n                        renter,\r\n                        inFlowRate,\r\n                        new bytes(0) // placeholder\r\n                    ),\r\n                    \"0x\",\r\n                    ctx\r\n                );\r\n        } else {\r\n            (newCtx, ) = _host.callAgreementWithContext(\r\n                    _cfa,\r\n                    abi.encodeWithSelector(\r\n                        _cfa.createFlow.selector,\r\n                        _cashToken,\r\n                        renter,\r\n                        inFlowRate,\r\n                        new bytes(0) // placeholder\r\n                    ),\r\n                    \"0x\",\r\n                    ctx\r\n                );\r\n        }\r\n    }\r\n\r\n    function _recoverToken(\r\n        bytes calldata ctx,\r\n        address sender\r\n    )\r\n        internal\r\n        returns (bytes memory newCtx)\r\n    {\r\n        address originalOwner;\r\n        uint256[] memory tokenIds = _tokenRents[sender];\r\n\r\n        for (uint i=0; i<tokenIds.length; i++) {\r\n            originalOwner = _tokensInfo[tokenIds[i]];\r\n            _tokensInfo[tokenIds[i]] = address(0);\r\n            _transferForRent(sender, originalOwner, tokenIds[i]);\r\n        }\r\n\r\n        delete _tokenRents[sender];\r\n\r\n        return _removeSuperfluidAgreement(ctx, originalOwner);\r\n    }\r\n\r\n    function _removeSuperfluidAgreement(bytes calldata ctx, address renter) internal returns (bytes memory newCtx) {\r\n\r\n        (newCtx, ) = _host.callAgreementWithContext(\r\n                _cfa,\r\n                abi.encodeWithSelector(\r\n                    _cfa.deleteFlow.selector,\r\n                    _cashToken,\r\n                    address(this),\r\n                    renter,\r\n                    new bytes(0) // placeholder\r\n                ),\r\n                \"0x\",\r\n                ctx\r\n            );\r\n    }\r\n\r\n    function getRents() external view returns (uint256) {\r\n        return _tokenRents[msg.sender].length;\r\n    }\r\n\r\n    function getRentInfoByTokenId(uint256 index) external view returns (uint256) {\r\n        return _tokenRents[msg.sender][index];\r\n    }\r\n\r\n    function putForRent(uint256 _id, uint256 _price) external {\r\n        require(ownerOf(_id) == msg.sender, \"OnlyOwner\");\r\n\r\n        RentInfo memory tokenRent = RentInfo({\r\n            id: _id,\r\n            price: _price,\r\n            owner: msg.sender\r\n        });\r\n\r\n        _rentingInfo.push(tokenRent);\r\n    }\r\n\r\n    function getRentList() external view returns (RentInfo[] memory) {\r\n        return _rentingInfo;\r\n    }\r\n\r\n    // ERC721 functions\r\n    function mint(uint256 _tokenId, string memory _metadata) external {\r\n        _mint(msg.sender, uint256(_tokenId));\r\n        _setTokenURI(_tokenId, _metadata);\r\n    }\r\n\r\n    function _transfer(address from, address to, uint256 tokenId) internal override {\r\n        require(_tokensInfo[tokenId] == address(0), \"TokenRented\");\r\n        super._transfer(from, to, tokenId);\r\n    }\r\n\r\n    function _transferForRent(address from, address to, uint256 tokenId) internal override {\r\n        super._transferForRent(from, to, tokenId);\r\n    }\r\n\r\n    function _burn(uint256 tokenId) internal override {\r\n        require(_tokensInfo[tokenId] == address(0), \"TokenRented\");\r\n        super._burn(tokenId);\r\n    }\r\n\r\n    function approve(address to, uint256 tokenId) public override {\r\n        require(_tokensInfo[tokenId] == address(0), \"TokenRented\");\r\n        super.approve(to, tokenId);\r\n    }\r\n\r\n    function setApprovalForAll(address operator, bool approved) public virtual override {\r\n        bool canPass = true;\r\n        uint balance = balanceOf(msg.sender);\r\n        for(uint i=0; i<balance; i++) {\r\n            uint tokenId = tokenOfOwnerByIndex(msg.sender, i);\r\n            if (_tokensInfo[tokenId] != address(0)) {\r\n                canPass = false; \r\n                break;\r\n            }\r\n        }\r\n        \r\n        require(canPass == true, \"CantCallWithRentedTokens\");\r\n\r\n        super.setApprovalForAll(operator, approved);\r\n    }\r\n\r\n    /**\r\n    * Override isApprovedForAll to whitelist user's OpenSea proxy accounts to enable gas-less listings.\r\n    */\r\n    function isApprovedForAll(address owner, address operator) public view override returns (bool) {\r\n        uint256 id = 0;\r\n        assembly {\r\n            id := chainid()\r\n        }\r\n\r\n        address proxyAddress = address(0);\r\n        if (id == 1)\r\n            proxyAddress = 0xa5409ec958C83C3f309868babACA7c86DCB077c1;\r\n        else if (id == 4)\r\n            proxyAddress = 0xF57B2c51dED3A29e6891aba85459d600256Cf317;\r\n\r\n        require(proxyAddress == address(0), \"NoAddress\");\r\n        if (proxyAddress != address(0)) {\r\n            // Whitelist OpenSea proxy contract for easy trading.\r\n            ProxyRegistry proxyRegistry = ProxyRegistry(proxyAddress);\r\n            if (address(proxyRegistry.proxies(owner)) == operator) {\r\n                return true;\r\n            }\r\n        }\r\n\r\n        return super.isApprovedForAll(owner, operator);\r\n    }\r\n\r\n    function changeBaseUrl(string memory _baseUrl) external onlyOwner {\r\n        _setBaseURI(_baseUrl);\r\n    }\r\n}",
  "sourcePath": "D:\\Projects\\Hackaton\\NFTsDefi_SuperFluid\\contracts\\tokens\\ERC721Defi.sol",
  "compiler": {
    "name": "solc",
    "version": "0.7.6+commit.7338295f.Emscripten.clang"
  },
  "schemaVersion": "3.3.2",
  "updatedAt": "2021-03-20T15:08:01.684Z",
  "devdoc": {
    "kind": "dev",
    "methods": {
      "approve(address,uint256)": {
        "details": "See {IERC721-approve}."
      },
      "balanceOf(address)": {
        "details": "See {IERC721-balanceOf}."
      },
      "baseURI()": {
        "details": "Returns the base URI set via {_setBaseURI}. This will be automatically added as a prefix in {tokenURI} to each token's URI, or to the token ID if no specific URI is set for that token ID."
      },
      "getApproved(uint256)": {
        "details": "See {IERC721-getApproved}."
      },
      "name()": {
        "details": "See {IERC721Metadata-name}."
      },
      "owner()": {
        "details": "Returns the address of the current owner."
      },
      "ownerOf(uint256)": {
        "details": "See {IERC721-ownerOf}."
      },
      "renounceOwnership()": {
        "details": "Leaves the contract without owner. It will not be possible to call `onlyOwner` functions anymore. Can only be called by the current owner. NOTE: Renouncing ownership will leave the contract without an owner, thereby removing any functionality that is only available to the owner."
      },
      "safeTransferFrom(address,address,uint256)": {
        "details": "See {IERC721-safeTransferFrom}."
      },
      "safeTransferFrom(address,address,uint256,bytes)": {
        "details": "See {IERC721-safeTransferFrom}."
      },
      "setApprovalForAll(address,bool)": {
        "details": "See {IERC721-setApprovalForAll}."
      },
      "supportsInterface(bytes4)": {
        "details": "See {IERC165-supportsInterface}. Time complexity O(1), guaranteed to always use less than 30 000 gas."
      },
      "symbol()": {
        "details": "See {IERC721Metadata-symbol}."
      },
      "tokenByIndex(uint256)": {
        "details": "See {IERC721Enumerable-tokenByIndex}."
      },
      "tokenOfOwnerByIndex(address,uint256)": {
        "details": "See {IERC721Enumerable-tokenOfOwnerByIndex}."
      },
      "tokenURI(uint256)": {
        "details": "See {IERC721Metadata-tokenURI}."
      },
      "totalSupply()": {
        "details": "See {IERC721Enumerable-totalSupply}."
      },
      "transferFrom(address,address,uint256)": {
        "details": "See {IERC721-transferFrom}."
      },
      "transferOwnership(address)": {
        "details": "Transfers ownership of the contract to a new account (`newOwner`). Can only be called by the current owner."
      }
    },
    "version": 1
  },
  "userdoc": {
    "kind": "user",
    "methods": {
      "isApprovedForAll(address,address)": {
        "notice": "Override isApprovedForAll to whitelist user's OpenSea proxy accounts to enable gas-less listings."
      }
    },
    "version": 1
  }
}