{
  "contractName": "ERC721Defi",
  "abi": [
    {
      "inputs": [
        {
          "internalType": "string",
          "name": "_tokenName",
          "type": "string"
        },
        {
          "internalType": "string",
          "name": "_tokenSymbol",
          "type": "string"
        },
        {
          "internalType": "contract ISuperToken",
          "name": "cashToken",
          "type": "address"
        },
        {
          "internalType": "contract ISuperfluid",
          "name": "host",
          "type": "address"
        },
        {
          "internalType": "contract IConstantFlowAgreementV1",
          "name": "cfa",
          "type": "address"
        }
      ],
      "stateMutability": "nonpayable",
      "type": "constructor"
    },
    {
      "anonymous": false,
      "inputs": [
        {
          "indexed": true,
          "internalType": "address",
          "name": "owner",
          "type": "address"
        },
        {
          "indexed": true,
          "internalType": "address",
          "name": "approved",
          "type": "address"
        },
        {
          "indexed": true,
          "internalType": "uint256",
          "name": "tokenId",
          "type": "uint256"
        }
      ],
      "name": "Approval",
      "type": "event"
    },
    {
      "anonymous": false,
      "inputs": [
        {
          "indexed": true,
          "internalType": "address",
          "name": "owner",
          "type": "address"
        },
        {
          "indexed": true,
          "internalType": "address",
          "name": "operator",
          "type": "address"
        },
        {
          "indexed": false,
          "internalType": "bool",
          "name": "approved",
          "type": "bool"
        }
      ],
      "name": "ApprovalForAll",
      "type": "event"
    },
    {
      "anonymous": false,
      "inputs": [
        {
          "indexed": true,
          "internalType": "address",
          "name": "previousOwner",
          "type": "address"
        },
        {
          "indexed": true,
          "internalType": "address",
          "name": "newOwner",
          "type": "address"
        }
      ],
      "name": "OwnershipTransferred",
      "type": "event"
    },
    {
      "anonymous": false,
      "inputs": [
        {
          "indexed": true,
          "internalType": "address",
          "name": "from",
          "type": "address"
        },
        {
          "indexed": true,
          "internalType": "address",
          "name": "to",
          "type": "address"
        },
        {
          "indexed": true,
          "internalType": "uint256",
          "name": "tokenId",
          "type": "uint256"
        }
      ],
      "name": "Transfer",
      "type": "event"
    },
    {
      "inputs": [
        {
          "internalType": "address",
          "name": "owner",
          "type": "address"
        }
      ],
      "name": "balanceOf",
      "outputs": [
        {
          "internalType": "uint256",
          "name": "",
          "type": "uint256"
        }
      ],
      "stateMutability": "view",
      "type": "function"
    },
    {
      "inputs": [],
      "name": "baseURI",
      "outputs": [
        {
          "internalType": "string",
          "name": "",
          "type": "string"
        }
      ],
      "stateMutability": "view",
      "type": "function"
    },
    {
      "inputs": [
        {
          "internalType": "contract ISuperToken",
          "name": "",
          "type": "address"
        },
        {
          "internalType": "address",
          "name": "",
          "type": "address"
        },
        {
          "internalType": "bytes32",
          "name": "",
          "type": "bytes32"
        },
        {
          "internalType": "bytes",
          "name": "",
          "type": "bytes"
        },
        {
          "internalType": "bytes",
          "name": "",
          "type": "bytes"
        }
      ],
      "name": "beforeAgreementTerminated",
      "outputs": [
        {
          "internalType": "bytes",
          "name": "",
          "type": "bytes"
        }
      ],
      "stateMutability": "view",
      "type": "function"
    },
    {
      "inputs": [
        {
          "internalType": "uint256",
          "name": "tokenId",
          "type": "uint256"
        }
      ],
      "name": "getApproved",
      "outputs": [
        {
          "internalType": "address",
          "name": "",
          "type": "address"
        }
      ],
      "stateMutability": "view",
      "type": "function"
    },
    {
      "inputs": [],
      "name": "name",
      "outputs": [
        {
          "internalType": "string",
          "name": "",
          "type": "string"
        }
      ],
      "stateMutability": "view",
      "type": "function"
    },
    {
      "inputs": [],
      "name": "owner",
      "outputs": [
        {
          "internalType": "address",
          "name": "",
          "type": "address"
        }
      ],
      "stateMutability": "view",
      "type": "function"
    },
    {
      "inputs": [
        {
          "internalType": "uint256",
          "name": "tokenId",
          "type": "uint256"
        }
      ],
      "name": "ownerOf",
      "outputs": [
        {
          "internalType": "address",
          "name": "",
          "type": "address"
        }
      ],
      "stateMutability": "view",
      "type": "function"
    },
    {
      "inputs": [],
      "name": "renounceOwnership",
      "outputs": [],
      "stateMutability": "nonpayable",
      "type": "function"
    },
    {
      "inputs": [
        {
          "internalType": "address",
          "name": "from",
          "type": "address"
        },
        {
          "internalType": "address",
          "name": "to",
          "type": "address"
        },
        {
          "internalType": "uint256",
          "name": "tokenId",
          "type": "uint256"
        }
      ],
      "name": "safeTransferFrom",
      "outputs": [],
      "stateMutability": "nonpayable",
      "type": "function"
    },
    {
      "inputs": [
        {
          "internalType": "address",
          "name": "from",
          "type": "address"
        },
        {
          "internalType": "address",
          "name": "to",
          "type": "address"
        },
        {
          "internalType": "uint256",
          "name": "tokenId",
          "type": "uint256"
        },
        {
          "internalType": "bytes",
          "name": "_data",
          "type": "bytes"
        }
      ],
      "name": "safeTransferFrom",
      "outputs": [],
      "stateMutability": "nonpayable",
      "type": "function"
    },
    {
      "inputs": [
        {
          "internalType": "bytes4",
          "name": "interfaceId",
          "type": "bytes4"
        }
      ],
      "name": "supportsInterface",
      "outputs": [
        {
          "internalType": "bool",
          "name": "",
          "type": "bool"
        }
      ],
      "stateMutability": "view",
      "type": "function"
    },
    {
      "inputs": [],
      "name": "symbol",
      "outputs": [
        {
          "internalType": "string",
          "name": "",
          "type": "string"
        }
      ],
      "stateMutability": "view",
      "type": "function"
    },
    {
      "inputs": [
        {
          "internalType": "uint256",
          "name": "index",
          "type": "uint256"
        }
      ],
      "name": "tokenByIndex",
      "outputs": [
        {
          "internalType": "uint256",
          "name": "",
          "type": "uint256"
        }
      ],
      "stateMutability": "view",
      "type": "function"
    },
    {
      "inputs": [
        {
          "internalType": "address",
          "name": "owner",
          "type": "address"
        },
        {
          "internalType": "uint256",
          "name": "index",
          "type": "uint256"
        }
      ],
      "name": "tokenOfOwnerByIndex",
      "outputs": [
        {
          "internalType": "uint256",
          "name": "",
          "type": "uint256"
        }
      ],
      "stateMutability": "view",
      "type": "function"
    },
    {
      "inputs": [
        {
          "internalType": "uint256",
          "name": "tokenId",
          "type": "uint256"
        }
      ],
      "name": "tokenURI",
      "outputs": [
        {
          "internalType": "string",
          "name": "",
          "type": "string"
        }
      ],
      "stateMutability": "view",
      "type": "function"
    },
    {
      "inputs": [],
      "name": "totalSupply",
      "outputs": [
        {
          "internalType": "uint256",
          "name": "",
          "type": "uint256"
        }
      ],
      "stateMutability": "view",
      "type": "function"
    },
    {
      "inputs": [
        {
          "internalType": "address",
          "name": "from",
          "type": "address"
        },
        {
          "internalType": "address",
          "name": "to",
          "type": "address"
        },
        {
          "internalType": "uint256",
          "name": "tokenId",
          "type": "uint256"
        }
      ],
      "name": "transferFrom",
      "outputs": [],
      "stateMutability": "nonpayable",
      "type": "function"
    },
    {
      "inputs": [
        {
          "internalType": "address",
          "name": "newOwner",
          "type": "address"
        }
      ],
      "name": "transferOwnership",
      "outputs": [],
      "stateMutability": "nonpayable",
      "type": "function"
    },
    {
      "inputs": [
        {
          "internalType": "contract ISuperToken",
          "name": "",
          "type": "address"
        },
        {
          "internalType": "address",
          "name": "",
          "type": "address"
        },
        {
          "internalType": "bytes32",
          "name": "",
          "type": "bytes32"
        },
        {
          "internalType": "bytes",
          "name": "",
          "type": "bytes"
        },
        {
          "internalType": "bytes",
          "name": "ctx",
          "type": "bytes"
        }
      ],
      "name": "beforeAgreementCreated",
      "outputs": [
        {
          "internalType": "bytes",
          "name": "",
          "type": "bytes"
        }
      ],
      "stateMutability": "view",
      "type": "function"
    },
    {
      "inputs": [
        {
          "internalType": "contract ISuperToken",
          "name": "",
          "type": "address"
        },
        {
          "internalType": "address",
          "name": "",
          "type": "address"
        },
        {
          "internalType": "bytes32",
          "name": "",
          "type": "bytes32"
        },
        {
          "internalType": "bytes",
          "name": "",
          "type": "bytes"
        },
        {
          "internalType": "bytes",
          "name": "ctx",
          "type": "bytes"
        }
      ],
      "name": "beforeAgreementUpdated",
      "outputs": [
        {
          "internalType": "bytes",
          "name": "",
          "type": "bytes"
        }
      ],
      "stateMutability": "view",
      "type": "function"
    },
    {
      "inputs": [
        {
          "internalType": "contract ISuperToken",
          "name": "superToken",
          "type": "address"
        },
        {
          "internalType": "address",
          "name": "agreementClass",
          "type": "address"
        },
        {
          "internalType": "bytes32",
          "name": "agreementId",
          "type": "bytes32"
        },
        {
          "internalType": "bytes",
          "name": "agreementData",
          "type": "bytes"
        },
        {
          "internalType": "bytes",
          "name": "cbdata",
          "type": "bytes"
        },
        {
          "internalType": "bytes",
          "name": "ctx",
          "type": "bytes"
        }
      ],
      "name": "afterAgreementCreated",
      "outputs": [
        {
          "internalType": "bytes",
          "name": "newCtx",
          "type": "bytes"
        }
      ],
      "stateMutability": "nonpayable",
      "type": "function"
    },
    {
      "inputs": [
        {
          "internalType": "contract ISuperToken",
          "name": "",
          "type": "address"
        },
        {
          "internalType": "address",
          "name": "",
          "type": "address"
        },
        {
          "internalType": "bytes32",
          "name": "",
          "type": "bytes32"
        },
        {
          "internalType": "bytes",
          "name": "agreementData",
          "type": "bytes"
        },
        {
          "internalType": "bytes",
          "name": "",
          "type": "bytes"
        },
        {
          "internalType": "bytes",
          "name": "ctx",
          "type": "bytes"
        }
      ],
      "name": "afterAgreementUpdated",
      "outputs": [
        {
          "internalType": "bytes",
          "name": "newCtx",
          "type": "bytes"
        }
      ],
      "stateMutability": "nonpayable",
      "type": "function"
    },
    {
      "inputs": [
        {
          "internalType": "contract ISuperToken",
          "name": "superToken",
          "type": "address"
        },
        {
          "internalType": "address",
          "name": "agreementClass",
          "type": "address"
        },
        {
          "internalType": "bytes32",
          "name": "agreementId",
          "type": "bytes32"
        },
        {
          "internalType": "bytes",
          "name": "agreementData",
          "type": "bytes"
        },
        {
          "internalType": "bytes",
          "name": "cbdata",
          "type": "bytes"
        },
        {
          "internalType": "bytes",
          "name": "ctx",
          "type": "bytes"
        }
      ],
      "name": "afterAgreementTerminated",
      "outputs": [
        {
          "internalType": "bytes",
          "name": "newCtx",
          "type": "bytes"
        }
      ],
      "stateMutability": "nonpayable",
      "type": "function"
    },
    {
      "inputs": [],
      "name": "getRents",
      "outputs": [
        {
          "internalType": "uint256",
          "name": "",
          "type": "uint256"
        }
      ],
      "stateMutability": "view",
      "type": "function"
    },
    {
      "inputs": [
        {
          "internalType": "uint256",
          "name": "index",
          "type": "uint256"
        }
      ],
      "name": "getRentInfoByTokenId",
      "outputs": [
        {
          "internalType": "uint256",
          "name": "",
          "type": "uint256"
        }
      ],
      "stateMutability": "view",
      "type": "function"
    },
    {
      "inputs": [
        {
          "internalType": "uint256",
          "name": "_nonce",
          "type": "uint256"
        }
      ],
      "name": "cancelRent",
      "outputs": [],
      "stateMutability": "nonpayable",
      "type": "function"
    },
    {
      "inputs": [],
      "name": "getNonceRent",
      "outputs": [
        {
          "internalType": "uint32",
          "name": "",
          "type": "uint32"
        }
      ],
      "stateMutability": "view",
      "type": "function"
    },
    {
      "inputs": [
        {
          "internalType": "uint256[]",
          "name": "_tokenIds",
          "type": "uint256[]"
        },
        {
          "internalType": "uint256",
          "name": "_price",
          "type": "uint256"
        },
        {
          "internalType": "uint32",
          "name": "_nonce",
          "type": "uint32"
        }
      ],
      "name": "prepareMessageForRent",
      "outputs": [
        {
          "internalType": "string",
          "name": "",
          "type": "string"
        }
      ],
      "stateMutability": "view",
      "type": "function"
    },
    {
      "inputs": [
        {
          "internalType": "uint256",
          "name": "_tokenId",
          "type": "uint256"
        },
        {
          "internalType": "string",
          "name": "_metadata",
          "type": "string"
        }
      ],
      "name": "mint",
      "outputs": [],
      "stateMutability": "nonpayable",
      "type": "function"
    },
    {
      "inputs": [
        {
          "internalType": "address",
          "name": "to",
          "type": "address"
        },
        {
          "internalType": "uint256",
          "name": "tokenId",
          "type": "uint256"
        }
      ],
      "name": "approve",
      "outputs": [],
      "stateMutability": "nonpayable",
      "type": "function"
    },
    {
      "inputs": [
        {
          "internalType": "address",
          "name": "operator",
          "type": "address"
        },
        {
          "internalType": "bool",
          "name": "approved",
          "type": "bool"
        }
      ],
      "name": "setApprovalForAll",
      "outputs": [],
      "stateMutability": "nonpayable",
      "type": "function"
    },
    {
      "inputs": [
        {
          "internalType": "address",
          "name": "owner",
          "type": "address"
        },
        {
          "internalType": "address",
          "name": "operator",
          "type": "address"
        }
      ],
      "name": "isApprovedForAll",
      "outputs": [
        {
          "internalType": "bool",
          "name": "",
          "type": "bool"
        }
      ],
      "stateMutability": "view",
      "type": "function"
    },
    {
      "inputs": [
        {
          "internalType": "string",
          "name": "_baseUrl",
          "type": "string"
        }
      ],
      "name": "changeBaseUrl",
      "outputs": [],
      "stateMutability": "nonpayable",
      "type": "function"
    }
  ],
  "bytecode": "0x60806040523480156200001157600080fd5b50604051620040df380380620040df83398101604081905262000034916200038e565b8484620000486301ffc9a760e01b620001a9565b81516200005d90600590602085019062000247565b5080516200007390600690602084019062000247565b50620000866380ac58cd60e01b620001a9565b62000098635b5e139f60e01b620001a9565b620000aa63780e9d6360e01b620001a9565b5050600a8054336001600160a01b031991821617909155600b805482166001600160a01b0386811691909117909155600c805483168583161790819055600d8054909316848316179092556040516315a722b960e31b8152641000000001929091169063ad3915c8906200012390849060040162000437565b600060405180830381600087803b1580156200013e57600080fd5b505af115801562000153573d6000803e3d6000fd5b505050506200019d6040518060400160405280601581526020017f68747470733a2f2f697066732e696f2f697066732f00000000000000000000008152506200022e60201b60201c565b50505050505062000459565b6001600160e01b0319808216141562000209576040805162461bcd60e51b815260206004820152601c60248201527f4552433136353a20696e76616c696420696e7465726661636520696400000000604482015290519081900360640190fd5b6001600160e01b0319166000908152602081905260409020805460ff19166001179055565b80516200024390600890602084019062000247565b5050565b828054600181600116156101000203166002900490600052602060002090601f0160209004810192826200027f5760008555620002ca565b82601f106200029a57805160ff1916838001178555620002ca565b82800160010185558215620002ca579182015b82811115620002ca578251825591602001919060010190620002ad565b50620002d8929150620002dc565b5090565b5b80821115620002d85760008155600101620002dd565b600082601f83011262000304578081fd5b81516001600160401b03808211156200031957fe5b6040516020601f8401601f19168201810183811183821017156200033957fe5b604052838252858401810187101562000350578485fd5b8492505b8383101562000373578583018101518284018201529182019162000354565b838311156200038457848185840101525b5095945050505050565b600080600080600060a08688031215620003a6578081fd5b85516001600160401b0380821115620003bd578283fd5b620003cb89838a01620002f3565b96506020880151915080821115620003e1578283fd5b50620003f088828901620002f3565b9450506040860151620004038162000440565b6060870151909350620004168162000440565b6080870151909250620004298162000440565b809150509295509295909350565b90815260200190565b6001600160a01b03811681146200045657600080fd5b50565b613c7680620004696000396000f3fe608060405234801561001057600080fd5b50600436106101fb5760003560e01c80635f9e7d771161011a5780638da5cb5b116100ad578063c87b56dd1161007c578063c87b56dd146103f5578063d86ed3e514610408578063e063da381461041b578063e985e9c51461042e578063f2fde38b14610441576101fb565b80638da5cb5b146103bf57806395d89b41146103c7578063a22cb465146103cf578063b88d4fde146103e2576101fb565b8063715018a6116100e9578063715018a61461039157806377097fc814610399578063857529f1146103ac578063884d1f40146102c1576101fb565b80635f9e7d77146103505780636352211e146103635780636c0360eb1461037657806370a082311461037e576101fb565b806330d9c9151161019257806343133170116101615780634313317014610302578063483f9619146103175780634f6ccce71461032a57806353c11f991461033d576101fb565b806330d9c915146102c15780633b7b293a146102d45780633c5ea0f3146102e757806342842e0e146102ef576101fb565b806318160ddd116101ce57806318160ddd14610273578063230dbd291461028857806323b872dd1461029b5780632f745c59146102ae576101fb565b806301ffc9a71461020057806306fdde0314610229578063081812fc1461023e578063095ea7b31461025e575b600080fd5b61021361020e366004613252565b610454565b604051610220919061366b565b60405180910390f35b610231610477565b604051610220919061368a565b61025161024c366004613574565b61050d565b6040516102209190613657565b61027161026c366004613099565b61056f565b005b61027b6105bb565b60405161022091906138f7565b610231610296366004613369565b6105c1565b6102716102a9366004612fac565b6105f0565b61027b6102bc366004613099565b610645565b6102316102cf3660046132ce565b61067d565b6102316102e23660046130c4565b610694565b61027b6107aa565b6102716102fd366004612fac565b6107bd565b61030a6107d8565b6040516102209190613900565b610271610325366004613465565b6107f1565b61027b610338366004613574565b61085c565b61023161034b366004613369565b61087d565b61023161035e3660046132ce565b610925565b610251610371366004613574565b61095e565b610231610979565b61027b61038c366004612f46565b6109da565b610271610a3d565b6102716103a73660046135c7565b610ae6565b6102716103ba366004613574565b610afa565b610251610b5a565b610231610b69565b6102716103dd366004613068565b610bca565b6102716103f0366004612fec565b610c56565b610231610403366004613574565b610ca7565b610231610416366004613369565b610dce565b61027b610429366004613574565b610e09565b61021361043c366004612f9a565b610e24565b61027161044f366004612f46565b610f63565b6001600160e01b0319811660009081526020819052604090205460ff165b919050565b60058054604080516020601f60026000196101006001881615020190951694909404938401819004810282018101909252828152606093909290918301828280156105035780601f106104d857610100808354040283529160200191610503565b820191906000526020600020905b8154815290600101906020018083116104e657829003601f168201915b5050505050905090565b600061051882611063565b6105535760405162461bcd60e51b815260040180806020018281038252602c815260200180613b3f602c913960400191505060405180910390fd5b506000908152600360205260409020546001600160a01b031690565b6000818152600e60205260409020546001600160a01b0316156105ad5760405162461bcd60e51b81526004016105a49061388f565b60405180910390fd5b6105b78282611080565b5050565b60095490565b606060006105d187890189612f62565b5090506105df84848361113f565b9150505b9998505050505050505050565b6105fa338261132b565b6106355760405162461bcd60e51b8152600401808060200182810382526031815260200180613c106031913960400191505060405180910390fd5b6106408383836113cf565b505050565b6001600160a01b038216600090815260016020526040812080548390811061066957fe5b906000526020600020015490505b92915050565b6060610689838361140f565b979650505050505050565b606060006106a13061160a565b90506106dc81604051806040016040528060078152602001660171024b2399d160cd1b81525060405180602001604052806000815250611787565b905060005b8551811015610733576107298261070a8884815181106106fd57fe5b60200260200101516118e0565b604051806040016040528060018152602001600b60fa1b815250611787565b91506001016106e1565b50610768816040518060400160405280600981526020016801710383934b1b29d160bd1b815250610763876118e0565b611787565b905061079f8160405180604001604052806009815260200168017103737b731b29d160bd1b8152506107638663ffffffff166118e0565b9150505b9392505050565b336000908152600f602052604090205490565b61064083838360405180602001604052806000815250610c56565b3360009081526010602052604090205463ffffffff1690565b600a546001600160a01b03163314610850576040805162461bcd60e51b815260206004820181905260248201527f4f776e61626c653a2063616c6c6572206973206e6f7420746865206f776e6572604482015290519081900360640190fd5b610859816119ae565b50565b60006009828154811061086b57fe5b90600052602060002001549050919050565b600c546060906001600160a01b031633146108aa5760405162461bcd60e51b81526004016105a4906138b4565b6108b38a6119c1565b15806108c557506108c3896119d5565b155b156109095782828080601f0160208091040260200160405190810160405280939291908181526020018383808284376000920191909152509293506105e392505050565b600061091787890189612f62565b5090506105df848483611a70565b606060405162461bcd60e51b8152600401808060200182810382526033815260200180613a346033913960400191505060405180910390fd5b6000908152600260205260409020546001600160a01b031690565b60088054604080516020601f60026000196101006001881615020190951694909404938401819004810282018101909252828152606093909290918301828280156105035780601f106104d857610100808354040283529160200191610503565b60006001600160a01b038216610a215760405162461bcd60e51b815260040180806020018281038252602a815260200180613b15602a913960400191505060405180910390fd5b506001600160a01b031660009081526001602052604090205490565b600a546001600160a01b03163314610a9c576040805162461bcd60e51b815260206004820181905260248201527f4f776e61626c653a2063616c6c6572206973206e6f7420746865206f776e6572604482015290519081900360640190fd5b600a546040516000916001600160a01b0316907f8be0079c531659141344cd1fd0a4f28419497f9722a3daafe3b4186f6b6457e0908390a3600a80546001600160a01b0319169055565b610af03383611bbf565b6105b78282611d28565b3360009081526010602052604090205463ffffffff168114610b2e5760405162461bcd60e51b81526004016105a490613834565b50336000908152601060205260409020805463ffffffff8082166001011663ffffffff19909116179055565b600a546001600160a01b031690565b60068054604080516020601f60026000196101006001881615020190951694909404938401819004810282018101909252828152606093909290918301828280156105035780601f106104d857610100808354040283529160200191610503565b60016000610bd7336109da565b905060005b81811015610c23576000610bf03383610645565b6000818152600e60205260409020549091506001600160a01b031615610c1a576000935050610c23565b50600101610bdc565b50600182151514610c465760405162461bcd60e51b81526004016105a490613858565b610c508484611d8b565b50505050565b610c60338361132b565b610c9b5760405162461bcd60e51b8152600401808060200182810382526031815260200180613c106031913960400191505060405180910390fd5b610c5084848484611e57565b6060610cb282611063565b610ced5760405162461bcd60e51b815260040180806020018281038252602f815260200180613bc0602f913960400191505060405180910390fd5b610cf5610979565b600760008481526020019081526020016000206040516020018083805190602001908083835b60208310610d3a5780518252601f199092019160209182019101610d1b565b6001836020036101000a03801982511681845116808217855250505050505090500182805460018160011615610100020316600290048015610db35780601f10610d91576101008083540402835291820191610db3565b820191906000526020600020905b815481529060010190602001808311610d9f575b505060408051601f1981840301815291905295945050505050565b600c546060906001600160a01b03163314610dfb5760405162461bcd60e51b81526004016105a4906138b4565b60006105d187890189612f62565b336000908152600f6020526040812080548390811061086b57fe5b600046816001821415610e4c575073a5409ec958c83c3f309868babaca7c86dcb077c1610e6c565b8160041415610e6c575073f57b2c51ded3a29e6891aba85459d600256cf3175b6001600160a01b038116801590610e829061160a565b90610ea05760405162461bcd60e51b81526004016105a4919061368a565b506001600160a01b03811615610f505760405163c455279160e01b815281906001600160a01b03808716919083169063c455279190610ee3908a90600401613657565b60206040518083038186803b158015610efb57600080fd5b505afa158015610f0f573d6000803e3d6000fd5b505050506040513d601f19601f82011682018060405250810190610f33919061342f565b6001600160a01b03161415610f4e5760019350505050610677565b505b610f5a8585611ea9565b95945050505050565b600a546001600160a01b03163314610fc2576040805162461bcd60e51b815260206004820181905260248201527f4f776e61626c653a2063616c6c6572206973206e6f7420746865206f776e6572604482015290519081900360640190fd5b6001600160a01b0381166110075760405162461bcd60e51b8152600401808060200182810382526026815260200180613a0e6026913960400191505060405180910390fd5b600a546040516001600160a01b038084169216907f8be0079c531659141344cd1fd0a4f28419497f9722a3daafe3b4186f6b6457e090600090a3600a80546001600160a01b0319166001600160a01b0392909216919091179055565b6000908152600260205260409020546001600160a01b0316151590565b600061108b8261095e565b9050806001600160a01b0316836001600160a01b031614156110de5760405162461bcd60e51b8152600401808060200182810382526021815260200180613bef6021913960400191505060405180910390fd5b336001600160a01b03821614806110fa57506110fa8133610e24565b6111355760405162461bcd60e51b8152600401808060200182810382526038815260200180613add6038913960400191505060405180910390fd5b6106408383611ed7565b600c54604051631fb6491d60e11b81526060916000916001600160a01b0390911690633f6c923a906111779088908890600401613676565b60006040518083038186803b15801561118f57600080fd5b505afa1580156111a3573d6000803e3d6000fd5b505050506040513d6000823e601f3d908101601f191682016040526111cb9190810190613497565b60a001519050600080600080600080868060200190518101906111ee919061316c565b955095509550955095509550600061121584848461120d8b8b8b610694565b929190611f45565b905060005b87518110156112dc576001600160a01b038b166000908152600f60205260409020885189908390811061124957fe5b602090810291909101810151825460018101845560009384529183209091015588518391600e918b908590811061127c57fe5b6020026020010151815260200190815260200160002060006101000a8154816001600160a01b0302191690836001600160a01b031602179055506112d4828c8a84815181106112c757fe5b6020026020010151612036565b60010161121a565b506001600160a01b0381166000908152601060205260409020805463ffffffff8082166001011663ffffffff1990911617905561131b8c8c8c84612041565b9c9b505050505050505050505050565b600061133682611063565b6113715760405162461bcd60e51b815260040180806020018281038252602c815260200180613ab1602c913960400191505060405180910390fd5b600061137c8361095e565b9050806001600160a01b0316846001600160a01b031614806113b75750836001600160a01b03166113ac8461050d565b6001600160a01b0316145b806113c757506113c78185610e24565b949350505050565b6000818152600e60205260409020546001600160a01b0316156114045760405162461bcd60e51b81526004016105a49061388f565b610640838383612368565b600c54604051631fb6491d60e11b81526000916001600160a01b031690633f6c923a906114429086908690600401613676565b60006040518083038186803b15801561145a57600080fd5b505afa15801561146e573d6000803e3d6000fd5b505050506040513d6000823e601f3d908101601f191682016040526114969190810190613497565b60a001519050600080600080600080868060200190518101906114b9919061316c565b95509550955095509550955060006114e4876000815181106114d757fe5b602002602001015161095e565b6001600160a01b038116600090815260106020526040902054909150600019860163ffffffff90811691161461152c5760405162461bcd60e51b81526004016105a490613798565b60005b875181101561159c5760006001600160a01b0316600e60008a848151811061155357fe5b6020908102919091018101518252810191909152604001600020546001600160a01b0316146115945760405162461bcd60e51b81526004016105a490613809565b60010161152f565b50600086116115bd5760405162461bcd60e51b81526004016105a4906137e1565b6115ce84848461120d8b8b8b610694565b6001600160a01b0316816001600160a01b0316146115fe5760405162461bcd60e51b81526004016105a4906137be565b50505050505050505050565b604080518082018252601081526f181899199a1a9b1b9c1cb0b131b232b360811b60208201528151602a80825260608281019094526001600160a01b0385169291600091602082018180368337019050509050600360fc1b8160008151811061166f57fe5b60200101906001600160f81b031916908160001a905350600f60fb1b8160018151811061169857fe5b60200101906001600160f81b031916908160001a90535060005b601481101561177e578260048583600c01602081106116cd57fe5b1a60f81b6001600160f81b031916901c60f81c60ff16815181106116ed57fe5b602001015160f81c60f81b82826002026002018151811061170a57fe5b60200101906001600160f81b031916908160001a905350828482600c016020811061173157fe5b825191901a600f1690811061174257fe5b602001015160f81c60f81b82826002026003018151811061175f57fe5b60200101906001600160f81b031916908160001a9053506001016116b2565b50949350505050565b6060600082518451865101016001600160401b03811180156117a857600080fd5b506040519080825280601f01601f1916602001820160405280156117d3576020820181803683370190505b5090506000805b865181101561182b578681815181106117ef57fe5b602001015160f81c60f81b83838060010194508151811061180c57fe5b60200101906001600160f81b031916908160001a9053506001016117da565b5060005b85518110156118805785818151811061184457fe5b602001015160f81c60f81b83838060010194508151811061186157fe5b60200101906001600160f81b031916908160001a90535060010161182f565b5060005b84518110156118d55784818151811061189957fe5b602001015160f81c60f81b8383806001019450815181106118b657fe5b60200101906001600160f81b031916908160001a905350600101611884565b509095945050505050565b60608161190557506040805180820190915260018152600360fc1b6020820152610472565b8160005b811561191d57600101600a82049150611909565b6000816001600160401b038111801561193557600080fd5b506040519080825280601f01601f191660200182016040528015611960576020820181803683370190505b50905060001982015b851561177e57600a860660300160f81b8282806001900393508151811061198c57fe5b60200101906001600160f81b031916908160001a905350600a86049550611969565b80516105b7906008906020840190612d56565b600b546001600160a01b0390811691161490565b60007fa9214cc96615e0085d3bb077758db69497dc2dce3b2b1e97bc93c3d18d83efd3826001600160a01b0316637730599e6040518163ffffffff1660e01b815260040160206040518083038186803b158015611a3157600080fd5b505afa158015611a45573d6000803e3d6000fd5b505050506040513d601f19601f82011682018060405250810190611a69919061323a565b1492915050565b6001600160a01b0381166000908152600f602090815260408083208054825181850281018501909352808352606094938493929190830182828015611ad457602002820191906000526020600020905b815481526020019060010190808311611ac0575b5050505050905060005b8151811015611b8857600e6000838381518110611af757fe5b6020026020010151815260200190815260200160002060009054906101000a90046001600160a01b031692506000600e6000848481518110611b3557fe5b6020026020010151815260200190815260200160002060006101000a8154816001600160a01b0302191690836001600160a01b03160217905550611b8085848484815181106112c757fe5b600101611ade565b506001600160a01b0384166000908152600f60205260408120611baa91612de2565b611bb58686846124e5565b9695505050505050565b6001600160a01b038216611c1a576040805162461bcd60e51b815260206004820181905260248201527f4552433732313a206d696e7420746f20746865207a65726f2061646472657373604482015290519081900360640190fd5b611c2381611063565b15611c75576040805162461bcd60e51b815260206004820152601c60248201527f4552433732313a20746f6b656e20616c7265616479206d696e74656400000000604482015290519081900360640190fd5b611c8160008383610640565b6001600160a01b03821660008181526001602081815260408084208054808501825590855282852001869055858452600290915280832080546001600160a01b0319168517905560098054928301815583527f6e1540171b6c0c960b71a7020d9f60077f6af931a8bbf590da0223dacf75c7af90910184905551839291907fddf252ad1be2c89b69c2b068fc378daa952ba7f163c4a11628f55a4df523b3ef908290a45050565b611d3182611063565b611d6c5760405162461bcd60e51b815260040180806020018281038252602c815260200180613b6b602c913960400191505060405180910390fd5b6000828152600760209081526040909120825161064092840190612d56565b6001600160a01b038216331415611de9576040805162461bcd60e51b815260206004820152601960248201527f4552433732313a20617070726f766520746f2063616c6c657200000000000000604482015290519081900360640190fd5b3360008181526004602090815260408083206001600160a01b03871680855290835292819020805460ff1916861515908117909155815190815290519293927f17307eab39ab6107e8899845ad3d59bd9653f200f220920489ca2b5937696c31929181900390910190a35050565b611e628484846113cf565b611e6e848484846125d2565b610c505760405162461bcd60e51b81526004018080602001828103825260328152602001806139dc6032913960400191505060405180910390fd5b6001600160a01b03918216600090815260046020908152604080832093909416825291909152205460ff1690565b600081815260036020526040902080546001600160a01b0319166001600160a01b0384169081179091558190611f0c8261095e565b6001600160a01b03167f8c5be1e5ebec7d5bd14f71427d1e84f3dd0314c0f7b2291e5b200ac8c7c3b92560405160405180910390a45050565b6000808590506000611fbd6040518060400160405280601a81526020017f19457468657265756d205369676e6564204d6573736167653a0a000000000000815250611f9084516118e0565b60408051600080825260208201818152828401828152606084019283526080840190945288939091612733565b90506001818051906020012087878760405160008152602001604052604051808581526020018460ff1681526020018381526020018281526020019450505050506020604051602081039080840390855afa158015612020573d6000803e3d6000fd5b5050604051601f19015198975050505050505050565b6106408383836129f0565b600d54600b5460405163e8e7e2d160e01b81526060926000926001600160a01b039182169263e8e7e2d19261207c92169030906004016136f1565b60206040518083038186803b15801561209457600080fd5b505afa1580156120a8573d6000803e3d6000fd5b505050506040513d601f19601f820116820180604052508101906120cc919061344b565b600d54600b54604051631cd43d1160e31b81529293506000926001600160a01b039283169263e6a1e8889261210a929116903090899060040161370b565b60806040518083038186803b15801561212257600080fd5b505afa158015612136573d6000803e3d6000fd5b505050506040513d601f19601f8201168201806040525081019061215a919061358c565b509092505050818101600b81900b6121715761235d565b600b82900b1561226e57600c54600d54600b546040805160008152602081019091526001600160a01b0393841693634329d293938116926328104d3160e11b926121c692909116908b90889060448101613762565b60408051601f198184030181529181526020820180516001600160e01b03166001600160e01b03199485161790525160e085901b909216825261221092918d908d9060040161369d565b600060405180830381600087803b15801561222a57600080fd5b505af115801561223e573d6000803e3d6000fd5b505050506040513d6000823e601f3d908101601f19168201604052612266919081019061326e565b50935061235d565b600c54600d54600b546040805160008152602081019091526001600160a01b0393841693634329d2939381169263317e182f60e11b926122b992909116908b90889060448101613762565b60408051601f198184030181529181526020820180516001600160e01b03166001600160e01b03199485161790525160e085901b909216825261230392918d908d9060040161369d565b600060405180830381600087803b15801561231d57600080fd5b505af1158015612331573d6000803e3d6000fd5b505050506040513d6000823e601f3d908101601f19168201604052612359919081019061326e565b5093505b505050949350505050565b826001600160a01b031661237b8261095e565b6001600160a01b0316146123c05760405162461bcd60e51b8152600401808060200182810382526029815260200180613b976029913960400191505060405180910390fd5b6001600160a01b0382166124055760405162461bcd60e51b8152600401808060200182810382526024815260200180613a676024913960400191505060405180910390fd5b612410838383610640565b61241b600082611ed7565b6001600160a01b038316600090815260016020526040902061243d9082612a98565b6001600160a01b0380831660008181526001602081815260408084208054808501825590855282852001879055868452600290915280832080546001600160a01b0319168517905560098054928301815583527f6e1540171b6c0c960b71a7020d9f60077f6af931a8bbf590da0223dacf75c7af9091018590555184938716917fddf252ad1be2c89b69c2b068fc378daa952ba7f163c4a11628f55a4df523b3ef91a4505050565b600c54600d54600b546040805160008152602081019091526060936001600160a01b0390811693634329d2939390821692635a5999e360e11b92612532921690309089906044810161372e565b60408051601f198184030181529181526020820180516001600160e01b03166001600160e01b03199485161790525160e085901b909216825261257c92918990899060040161369d565b600060405180830381600087803b15801561259657600080fd5b505af11580156125aa573d6000803e3d6000fd5b505050506040513d6000823e601f3d908101601f1916820160405261177e919081019061326e565b60006125e6846001600160a01b0316612ab0565b6125f2575060016113c7565b60006126f963150b7a0260e01b3388878760405160240180856001600160a01b03168152602001846001600160a01b0316815260200183815260200180602001828103825283818151815260200191508051906020019080838360005b8381101561266757818101518382015260200161264f565b50505050905090810190601f1680156126945780820380516001836020036101000a031916815260200191505b5095505050505050604051602081830303815290604052906001600160e01b0319166020820180516001600160e01b0383818316178352505050506040518060600160405280603281526020016139dc603291396001600160a01b0388169190612ab6565b9050600081806020019051602081101561271257600080fd5b50516001600160e01b031916630a85bd0160e11b1492505050949350505050565b6060600082518451865188518a518c518e510101010101016001600160401b038111801561276057600080fd5b506040519080825280601f01601f19166020018201604052801561278b576020820181803683370190505b5090506000805b8a518110156127e3578a81815181106127a757fe5b602001015160f81c60f81b8383806001019450815181106127c457fe5b60200101906001600160f81b031916908160001a905350600101612792565b5060005b8951811015612838578981815181106127fc57fe5b602001015160f81c60f81b83838060010194508151811061281957fe5b60200101906001600160f81b031916908160001a9053506001016127e7565b5060005b885181101561288d5788818151811061285157fe5b602001015160f81c60f81b83838060010194508151811061286e57fe5b60200101906001600160f81b031916908160001a90535060010161283c565b5060005b87518110156128e2578781815181106128a657fe5b602001015160f81c60f81b8383806001019450815181106128c357fe5b60200101906001600160f81b031916908160001a905350600101612891565b5060005b8651811015612937578681815181106128fb57fe5b602001015160f81c60f81b83838060010194508151811061291857fe5b60200101906001600160f81b031916908160001a9053506001016128e6565b5060005b855181101561298c5785818151811061295057fe5b602001015160f81c60f81b83838060010194508151811061296d57fe5b60200101906001600160f81b031916908160001a90535060010161293b565b5060005b84518110156129e1578481815181106129a557fe5b602001015160f81c60f81b8383806001019450815181106129c257fe5b60200101906001600160f81b031916908160001a905350600101612990565b50909998505050505050505050565b826001600160a01b0316612a038261095e565b6001600160a01b031614612a485760405162461bcd60e51b8152600401808060200182810382526029815260200180613b976029913960400191505060405180910390fd5b6001600160a01b038216612a8d5760405162461bcd60e51b8152600401808060200182810382526024815260200180613a676024913960400191505060405180910390fd5b61241b838383610640565b6000612aa48383612ac5565b90506106408382612afc565b3b151590565b60606113c78484600085612b67565b6000805b82848281548110612ad657fe5b906000526020600020015414158015612aef5750835481105b156107a357600101612ac9565b815460001901811015612b4357818160010181548110612b1857fe5b9060005260206000200154828281548110612b2f57fe5b600091825260209091200155600101612afc565b81805480612b4d57fe5b600190038181906000526020600020016000905590555050565b606082471015612ba85760405162461bcd60e51b8152600401808060200182810382526026815260200180613a8b6026913960400191505060405180910390fd5b612bb185612ab0565b612c02576040805162461bcd60e51b815260206004820152601d60248201527f416464726573733a2063616c6c20746f206e6f6e2d636f6e7472616374000000604482015290519081900360640190fd5b600080866001600160a01b031685876040518082805190602001908083835b60208310612c405780518252601f199092019160209182019101612c21565b6001836020036101000a03801982511681845116808217855250505050505090500191505060006040518083038185875af1925050503d8060008114612ca2576040519150601f19603f3d011682016040523d82523d6000602084013e612ca7565b606091505b509150915061068982828660608315612cc15750816107a3565b825115612cd15782518084602001fd5b8160405162461bcd60e51b81526004018080602001828103825283818151815260200191508051906020019080838360005b83811015612d1b578181015183820152602001612d03565b50505050905090810190601f168015612d485780820380516001836020036101000a031916815260200191505b509250505060405180910390fd5b828054600181600116156101000203166002900490600052602060002090601f016020900481019282612d8c5760008555612dd2565b82601f10612da557805160ff1916838001178555612dd2565b82800160010185558215612dd2579182015b82811115612dd2578251825591602001919060010190612db7565b50612dde929150612dfc565b5090565b508054600082559060005260206000209081019061085991905b5b80821115612dde5760008155600101612dfd565b6000612e24612e1f84613951565b613911565b9050828152838383011115612e3857600080fd5b828260208301376000602084830101529392505050565b80516104728161399e565b8051610472816139b3565b60008083601f840112612e76578182fd5b5081356001600160401b03811115612e8c578182fd5b602083019150836020828501011115612ea457600080fd5b9250929050565b600082601f830112612ebb578081fd5b8151612ec9612e1f82613951565b818152846020838601011115612edd578283fd5b6113c7826020830160208701613972565b8051600b81900b811461047257600080fd5b600082601f830112612f10578081fd5b6107a383833560208501612e11565b8035610472816139c9565b8051610472816139c9565b805160ff8116811461047257600080fd5b600060208284031215612f57578081fd5b81356107a38161399e565b60008060408385031215612f74578081fd5b8235612f7f8161399e565b91506020830135612f8f8161399e565b809150509250929050565b60008060408385031215612f74578182fd5b600080600060608486031215612fc0578081fd5b8335612fcb8161399e565b92506020840135612fdb8161399e565b929592945050506040919091013590565b60008060008060808587031215613001578182fd5b843561300c8161399e565b9350602085013561301c8161399e565b92506040850135915060608501356001600160401b0381111561303d578182fd5b8501601f8101871361304d578182fd5b61305c87823560208401612e11565b91505092959194509250565b6000806040838503121561307a578182fd5b82356130858161399e565b915060208301358015158114612f8f578182fd5b600080604083850312156130ab578182fd5b82356130b68161399e565b946020939093013593505050565b6000806000606084860312156130d8578081fd5b83356001600160401b038111156130ed578182fd5b8401601f810186136130fd578182fd5b8035602061310d612e1f83613934565b82815281810190848301838502860184018b1015613129578687fd5b8695505b8486101561314b57803583526001959095019491830191830161312d565b50965050860135935061316391505060408501612f1f565b90509250925092565b60008060008060008060c08789031215613184578384fd5b86516001600160401b03811115613199578485fd5b8701601f810189136131a9578485fd5b805160206131b9612e1f83613934565b82815281810190848301838502860184018e10156131d557898afd5b8995505b848610156131f75780518352600195909501949183019183016131d9565b50809a505050808a0151975050505061321260408801612f2a565b935061322060608801612f35565b92506080870151915060a087015190509295509295509295565b60006020828403121561324b578081fd5b5051919050565b600060208284031215613263578081fd5b81356107a3816139b3565b60008060408385031215613280578182fd5b82516001600160401b0380821115613296578384fd5b6132a286838701612eab565b935060208501519150808211156132b7578283fd5b506132c485828601612eab565b9150509250929050565b600080600080600080600060a0888a0312156132e8578485fd5b87356132f38161399e565b965060208801356133038161399e565b95506040880135945060608801356001600160401b0380821115613325578283fd5b6133318b838c01612e65565b909650945060808a0135915080821115613349578283fd5b506133568a828b01612e65565b989b979a50959850939692959293505050565b600080600080600080600080600060c08a8c031215613386578283fd5b89356133918161399e565b985060208a01356133a18161399e565b975060408a0135965060608a01356001600160401b03808211156133c3578485fd5b6133cf8d838e01612e65565b909850965060808c01359150808211156133e7578485fd5b6133f38d838e01612e65565b909650945060a08c013591508082111561340b578384fd5b506134188c828d01612e65565b915080935050809150509295985092959850929598565b600060208284031215613440578081fd5b81516107a38161399e565b60006020828403121561345c578081fd5b6107a382612eee565b600060208284031215613476578081fd5b81356001600160401b0381111561348b578182fd5b6113c784828501612f00565b6000602082840312156134a8578081fd5b81516001600160401b03808211156134be578283fd5b81840191506101208083870312156134d4578384fd5b6134dd81613911565b90506134e883612f35565b81526134f660208401612f35565b60208201526040830151604082015261351160608401612e4f565b606082015261352260808401612e5a565b608082015260a083015182811115613538578485fd5b61354487828601612eab565b60a08301525060c0838101519082015260e080840151908201526101009283015192810192909252509392505050565b600060208284031215613585578081fd5b5035919050565b600080600080608085870312156135a1578182fd5b845193506135b160208601612eee565b6040860151606090960151949790965092505050565b600080604083850312156135d9578182fd5b8235915060208301356001600160401b038111156135f5578182fd5b6132c485828601612f00565b60008284528282602086013780602084860101526020601f19601f85011685010190509392505050565b60008151808452613643816020860160208601613972565b601f01601f19169290920160200192915050565b6001600160a01b0391909116815260200190565b901515815260200190565b6000602082526113c7602083018486613601565b6000602082526107a3602083018461362b565b6001600160a01b03851681526080602082018190526000906136c19083018661362b565b8281038060408501526002825261060f60f31b602083015260408101606085015250610689604082018587613601565b6001600160a01b0392831681529116602082015260400190565b6001600160a01b0393841681529183166020830152909116604082015260600190565b6001600160a01b038581168252848116602083015283166040820152608060608201819052600090611bb59083018461362b565b6001600160a01b03858116825284166020820152600b83900b6040820152608060608201819052600090611bb59083018461362b565b6020808252600c908201526b496e76616c69644e6f6e636560a01b604082015260600190565b6020808252600990820152682bb937b733a9b4b3b760b91b604082015260600190565b6020808252600e908201526d15dc9bdb99d5985b1d5954d95b9d60921b604082015260600190565b602080825260119082015270546f6b656e4e6f74417661696c61626c6560781b604082015260600190565b6020808252600a908201526957726f6e674e6f6e636560b01b604082015260600190565b60208082526018908201527f43616e7443616c6c5769746852656e746564546f6b656e730000000000000000604082015260600190565b6020808252600b908201526a151bdad95b94995b9d195960aa1b604082015260600190565b60208082526023908201527f4e465444656669546f6b656e3a20737570706f7274206f6e6c79206f6e6520686040820152621bdcdd60ea1b606082015260800190565b90815260200190565b63ffffffff91909116815260200190565b6040518181016001600160401b038111828210171561392c57fe5b604052919050565b60006001600160401b0382111561394757fe5b5060209081020190565b60006001600160401b0382111561396457fe5b50601f01601f191660200190565b60005b8381101561398d578181015183820152602001613975565b83811115610c505750506000910152565b6001600160a01b038116811461085957600080fd5b6001600160e01b03198116811461085957600080fd5b63ffffffff8116811461085957600080fdfe4552433732313a207472616e7366657220746f206e6f6e20455243373231526563656976657220696d706c656d656e7465724f776e61626c653a206e6577206f776e657220697320746865207a65726f2061646472657373556e737570706f727465642063616c6c6261636b202d20204265666f72652041677265656d656e74205465726d696e617465644552433732313a207472616e7366657220746f20746865207a65726f2061646472657373416464726573733a20696e73756666696369656e742062616c616e636520666f722063616c6c4552433732313a206f70657261746f7220717565727920666f72206e6f6e6578697374656e7420746f6b656e4552433732313a20617070726f76652063616c6c6572206973206e6f74206f776e6572206e6f7220617070726f76656420666f7220616c6c4552433732313a2062616c616e636520717565727920666f7220746865207a65726f20616464726573734552433732313a20617070726f76656420717565727920666f72206e6f6e6578697374656e7420746f6b656e4552433732314d657461646174613a2055524920736574206f66206e6f6e6578697374656e7420746f6b656e4552433732313a207472616e73666572206f6620746f6b656e2074686174206973206e6f74206f776e4552433732314d657461646174613a2055524920717565727920666f72206e6f6e6578697374656e7420746f6b656e4552433732313a20617070726f76616c20746f2063757272656e74206f776e65724552433732313a207472616e736665722063616c6c6572206973206e6f74206f776e6572206e6f7220617070726f766564a26469706673582212206ebf56a64754b775b07c683e5bd2986b437bc4fa135fefb3ed994e1c063da7ea64736f6c63430007060033",
  "immutableReferences": {},
  "source": "// SPDX-License-Identifier: MIT\r\npragma solidity ^0.7.6;\r\npragma abicoder v2;\r\n\r\n/// @author Jorge Gomes Durn - jgomes79@hotmail.es\r\n/// @title  ERC721Defi - ERC721 for rent integrated with Superfluid\r\n/// @dev    \r\n\r\nimport \"./ERC721.sol\";\r\nimport \"../access/Ownable.sol\";\r\nimport \"../interfaces/IERC721Defi.sol\";\r\nimport \"../libraries/AddressLibrary.sol\";\r\nimport \"../libraries/StringLibrary.sol\";\r\nimport \"../libraries/UintLibrary.sol\";\r\nimport \"../libraries/SafeMath.sol\";\r\n\r\nimport {\r\n    ISuperfluid,\r\n    ISuperToken,\r\n    ISuperAgreement,\r\n    SuperAppDefinitions\r\n} from \"@superfluid-finance/ethereum-contracts/contracts/interfaces/superfluid/ISuperfluid.sol\";\r\n\r\nimport {\r\n    IConstantFlowAgreementV1\r\n} from \"@superfluid-finance/ethereum-contracts/contracts/interfaces/agreements/IConstantFlowAgreementV1.sol\";\r\n\r\nimport {\r\n    SuperAppBase\r\n} from \"@superfluid-finance/ethereum-contracts/contracts/apps/SuperAppBase.sol\";\r\n\r\ncontract OwnableDelegateProxy { }\r\n\r\ncontract ProxyRegistry {\r\n    mapping(address => OwnableDelegateProxy) public proxies;\r\n}\r\n\r\ncontract ERC721Defi is IERC721Defi, SuperAppBase, ERC721, Ownable {\r\n    using AddressLibrary for address;\r\n    using StringLibrary for string;\r\n    using UintLibrary for uint256;\r\n    using SafeMath for uint256;\r\n\r\n    ISuperToken private _cashToken;\r\n    ISuperfluid private _host;\r\n    IConstantFlowAgreementV1  private _cfa;\r\n\r\n    mapping (uint256 => address) private _tokensInfo;\r\n    mapping (address => uint256[]) private _tokenRents;\r\n    mapping (address => uint32) private _nonces;\r\n    mapping (uint256 => string) private _rentingInfo;\r\n\r\n    constructor (string memory _tokenName, string memory _tokenSymbol, ISuperToken cashToken, ISuperfluid host, IConstantFlowAgreementV1 cfa) ERC721(_tokenName,_tokenSymbol) {\r\n        _cashToken = cashToken;\r\n        _host = host;\r\n        _cfa = cfa;\r\n\r\n        uint256 configWord =\r\n            SuperAppDefinitions.APP_LEVEL_FINAL |\r\n            SuperAppDefinitions.BEFORE_AGREEMENT_TERMINATED_NOOP;\r\n\r\n        _host.registerApp(configWord);\r\n        \r\n        _setBaseURI(\"https://ipfs.io/ipfs/\");\r\n    }\r\n\r\n    /** \r\n        @notice Superfluid specific code\r\n        @dev Modifier that checks message come from Superfluid host\r\n    */\r\n    modifier onlyHost() {\r\n        require(msg.sender == address(_host), \"NFTDefiToken: support only one host\");\r\n        _;\r\n    }\r\n\r\n    /** \r\n        @notice Superfluid specific code\r\n        @dev Modifier that checks token and agreement are valid\r\n    */\r\n    modifier onlyExpected(ISuperToken _superToken, address _agreementClass) {\r\n        require(_isAccepted(_superToken) , \"NFTDefiToken: not accepted tokens\");\r\n        require(_isCFAv1(_agreementClass), \"NFTDefiToken: only CFAv1 supported\");\r\n        _;\r\n    }\r\n\r\n    function _isAccepted(ISuperToken _superToken) private view returns (bool) {\r\n        return address(_superToken) == address(_cashToken);\r\n    }\r\n\r\n    function _isCFAv1(address _agreementClass) private view returns (bool) {\r\n        return ISuperAgreement(_agreementClass).agreementType()\r\n            == keccak256(\"org.superfluid-finance.agreements.ConstantFlowAgreement.v1\");\r\n    }\r\n\r\n    function beforeAgreementCreated(\r\n        ISuperToken /*superToken*/,\r\n        address /*agreementClass*/,\r\n        bytes32 /*agreementId*/,\r\n        bytes calldata /*agreementData*/,\r\n        bytes calldata ctx\r\n    )\r\n        external\r\n        view\r\n        virtual\r\n        override\r\n        returns (bytes memory /*cbdata*/)\r\n    {\r\n        _checkValidRent(ctx);\r\n    }\r\n\r\n    function beforeAgreementUpdated(\r\n        ISuperToken /*superToken*/,\r\n        address /*agreementClass*/,\r\n        bytes32 /*agreementId*/,\r\n        bytes calldata /*agreementData*/,\r\n        bytes calldata ctx\r\n    )\r\n        external\r\n        view\r\n        virtual\r\n        override\r\n        returns (bytes memory /*cbdata*/)\r\n    {\r\n        _checkValidRent(ctx);\r\n    }\r\n\r\n    function afterAgreementCreated(\r\n        ISuperToken superToken,\r\n        address agreementClass,\r\n        bytes32 agreementId,\r\n        bytes calldata agreementData,\r\n        bytes calldata cbdata,\r\n        bytes calldata ctx\r\n    )\r\n        external override\r\n        onlyHost\r\n        returns(bytes memory newCtx)\r\n    {\r\n        (address sender,) = abi.decode(agreementData, (address, address));\r\n        return _rentToken(ctx, sender);\r\n    }\r\n\r\n    function afterAgreementUpdated(\r\n        ISuperToken /*superToken*/,\r\n        address /*agreementClass*/,\r\n        bytes32 /*agreementId*/,\r\n        bytes calldata agreementData,\r\n        bytes calldata /*cbdata*/,\r\n        bytes calldata ctx\r\n    )\r\n        external\r\n        virtual\r\n        override\r\n        returns (bytes memory newCtx)\r\n    {\r\n        (address sender,) = abi.decode(agreementData, (address, address));\r\n        return _rentToken(ctx, sender);\r\n    }\r\n\r\n    function afterAgreementTerminated(\r\n        ISuperToken superToken,\r\n        address agreementClass,\r\n        bytes32 agreementId,\r\n        bytes calldata agreementData,\r\n        bytes calldata cbdata,\r\n        bytes calldata ctx\r\n    )\r\n        external\r\n        virtual\r\n        override\r\n        onlyHost\r\n        returns(bytes memory newCtx)\r\n    {\r\n        if (!_isAccepted(superToken) || !_isCFAv1(agreementClass)) return ctx;\r\n        (address sender,) = abi.decode(agreementData, (address, address));\r\n\r\n        return _recoverToken(ctx, sender);\r\n    }\r\n\r\n    function _checkValidRent(bytes calldata ctx) internal view {\r\n        bytes memory userData = _host.decodeCtx(ctx).userData;\r\n        (uint256[] memory tokenIds, uint256 price, uint32 nonce, uint8 v, bytes32 r, bytes32 s) = abi.decode(userData, (uint256[], uint256, uint32, uint8, bytes32, bytes32));\r\n        \r\n        address payable renter = payable(ownerOf(tokenIds[0]));\r\n        require(_nonces[renter] == nonce - 1, \"InvalidNonce\");\r\n        for (uint i=0; i<tokenIds.length; i++) require(_tokensInfo[tokenIds[i]] == address(0), \"TokenNotAvailable\");\r\n        require(price > 0, \"WrongValueSent\");\r\n        require(renter == prepareMessageForRent(tokenIds, price, nonce).recover(v, r, s), \"WrongSign\");\r\n    }\r\n\r\n    function _rentToken(\r\n        bytes calldata ctx,\r\n        address sender\r\n    )\r\n        internal\r\n        returns (bytes memory newCtx)\r\n    {\r\n        bytes memory userData = _host.decodeCtx(ctx).userData;\r\n        (uint256[] memory tokenIds, uint256 price, uint32 nonce, uint8 v, bytes32 r, bytes32 s) = abi.decode(userData, (uint256[], uint256, uint32, uint8, bytes32, bytes32));\r\n\r\n        address renter = prepareMessageForRent(tokenIds, price, nonce).recover(v, r, s);\r\n       \r\n        for (uint i=0; i<tokenIds.length; i++) {\r\n            _tokenRents[sender].push(tokenIds[i]);\r\n            _tokensInfo[tokenIds[i]] = renter;\r\n            _transferForRent(renter, sender, tokenIds[i]);\r\n        }\r\n\r\n        _nonces[renter]++;\r\n\r\n        return _redirectSuperfluidAgreement(ctx, sender, renter);\r\n    }\r\n\r\n    function _redirectSuperfluidAgreement(bytes calldata ctx, address sender, address renter) internal returns (bytes memory newCtx) {\r\n\r\n        int96 netFlowRate = _cfa.getNetFlow(_cashToken, address(this));\r\n        (,int96 outFlowRate,,) = _cfa.getFlow(_cashToken, address(this), renter);\r\n        int96 inFlowRate = netFlowRate + outFlowRate;\r\n\r\n        if (inFlowRate == int96(0)) {\r\n            // DELETE FLOW. WE ARE DOING THAT IN THE _removeSuperfluidAgreement function. Is it enought???? \r\n        } else if (outFlowRate != int96(0)){\r\n            (newCtx, ) = _host.callAgreementWithContext(\r\n                    _cfa,\r\n                    abi.encodeWithSelector(\r\n                        _cfa.updateFlow.selector,\r\n                        _cashToken,\r\n                        renter,\r\n                        inFlowRate,\r\n                        new bytes(0) // placeholder\r\n                    ),\r\n                    \"0x\",\r\n                    ctx\r\n                );\r\n        } else {\r\n            (newCtx, ) = _host.callAgreementWithContext(\r\n                    _cfa,\r\n                    abi.encodeWithSelector(\r\n                        _cfa.createFlow.selector,\r\n                        _cashToken,\r\n                        renter,\r\n                        inFlowRate,\r\n                        new bytes(0) // placeholder\r\n                    ),\r\n                    \"0x\",\r\n                    ctx\r\n                );\r\n        }\r\n    }\r\n\r\n    function _recoverToken(\r\n        bytes calldata ctx,\r\n        address sender\r\n    )\r\n        internal\r\n        returns (bytes memory newCtx)\r\n    {\r\n\r\n        address originalOwner;\r\n        uint256[] memory tokenIds = _tokenRents[sender];\r\n\r\n        for (uint i=0; i<tokenIds.length; i++) {\r\n            originalOwner = _tokensInfo[tokenIds[i]];\r\n            _tokensInfo[tokenIds[i]] = address(0);\r\n            _transferForRent(sender, originalOwner, tokenIds[i]);\r\n        }\r\n\r\n        delete _tokenRents[sender];\r\n\r\n        return _removeSuperfluidAgreement(ctx, originalOwner);\r\n    }\r\n\r\n    function _removeSuperfluidAgreement(bytes calldata ctx, address renter) internal returns (bytes memory newCtx) {\r\n\r\n        (newCtx, ) = _host.callAgreementWithContext(\r\n                _cfa,\r\n                abi.encodeWithSelector(\r\n                    _cfa.deleteFlow.selector,\r\n                    _cashToken,\r\n                    address(this),\r\n                    renter,\r\n                    new bytes(0) // placeholder\r\n                ),\r\n                \"0x\",\r\n                ctx\r\n            );\r\n    }\r\n\r\n    function getRents() external view override returns (uint256) {\r\n        return _tokenRents[msg.sender].length;\r\n    }\r\n\r\n    function getRentInfoByTokenId(uint256 index) external view override returns (uint256) {\r\n        return _tokenRents[msg.sender][index];\r\n    }\r\n\r\n    function cancelRent(uint256 _nonce) external override { \r\n        require(_nonce == _nonces[msg.sender], \"WrongNonce\");\r\n        _nonces[msg.sender]++;\r\n    }\r\n\r\n    function getNonceRent() external view override returns(uint32) {\r\n        return _nonces[msg.sender];\r\n    }\r\n\r\n    function prepareMessageForRent(uint256[] memory _tokenIds, uint256 _price, uint32 _nonce) public view returns (string memory) {\r\n        string memory result = address(this).toString();\r\n        result = string(concat(bytes(result), bytes(\". Ids: \"), bytes(\"\")));\r\n        for (uint i=0; i<_tokenIds.length; i++) {\r\n            result = string(concat(bytes(result), bytes(_tokenIds[i].toString()), bytes(\",\")));\r\n        }\r\n        result = string(concat(bytes(result), \". price: \", bytes(_price.toString())));\r\n        result = string(concat(bytes(result), \". nonce: \", bytes(uint256(_nonce).toString())));\r\n\r\n        return result;\r\n    }\r\n\r\n    // ERC721 functions\r\n    function mint(uint256 _tokenId, string memory _metadata) external override {\r\n        _mint(msg.sender, uint256(_tokenId));\r\n        _setTokenURI(_tokenId, _metadata);\r\n    }\r\n\r\n    function _transfer(address from, address to, uint256 tokenId) internal override {\r\n        require(_tokensInfo[tokenId] == address(0), \"TokenRented\");\r\n        super._transfer(from, to, tokenId);\r\n    }\r\n\r\n    function _transferForRent(address from, address to, uint256 tokenId) internal override {\r\n        super._transferForRent(from, to, tokenId);\r\n    }\r\n\r\n    function _burn(uint256 tokenId) internal override {\r\n        require(_tokensInfo[tokenId] == address(0), \"TokenRented\");\r\n        super._burn(tokenId);\r\n    }\r\n\r\n    function approve(address to, uint256 tokenId) public override {\r\n        require(_tokensInfo[tokenId] == address(0), \"TokenRented\");\r\n        super.approve(to, tokenId);\r\n    }\r\n\r\n    function setApprovalForAll(address operator, bool approved) public virtual override {\r\n        bool canPass = true;\r\n        uint balance = balanceOf(msg.sender);\r\n        for(uint i=0; i<balance; i++) {\r\n            uint tokenId = tokenOfOwnerByIndex(msg.sender, i);\r\n            if (_tokensInfo[tokenId] != address(0)) {\r\n                canPass = false; \r\n                break;\r\n            }\r\n        }\r\n        \r\n        require(canPass == true, \"CantCallWithRentedTokens\");\r\n\r\n        super.setApprovalForAll(operator, approved);\r\n    }\r\n\r\n    /**\r\n    * Override isApprovedForAll to whitelist user's OpenSea proxy accounts to enable gas-less listings.\r\n    */\r\n    function isApprovedForAll(address owner, address operator) public view override returns (bool) {\r\n        uint256 id = 0;\r\n        assembly {\r\n            id := chainid()\r\n        }\r\n\r\n        address proxyAddress = address(0);\r\n        if (id == 1)\r\n            proxyAddress = 0xa5409ec958C83C3f309868babACA7c86DCB077c1;\r\n        else if (id == 4)\r\n            proxyAddress = 0xF57B2c51dED3A29e6891aba85459d600256Cf317;\r\n\r\n        require(proxyAddress == address(0), proxyAddress.toString());\r\n        if (proxyAddress != address(0)) {\r\n            // Whitelist OpenSea proxy contract for easy trading.\r\n            ProxyRegistry proxyRegistry = ProxyRegistry(proxyAddress);\r\n            if (address(proxyRegistry.proxies(owner)) == operator) {\r\n                return true;\r\n            }\r\n        }\r\n\r\n        return super.isApprovedForAll(owner, operator);\r\n    }\r\n\r\n    function changeBaseUrl(string memory _baseUrl) external onlyOwner {\r\n        _setBaseURI(_baseUrl);\r\n    }\r\n\r\n    // STRING UTILS\r\n    function concat(bytes memory _ba, bytes memory _bb, bytes memory _bc) internal pure returns (bytes memory) {\r\n        bytes memory resultBytes = new bytes(_ba.length + _bb.length + _bc.length);\r\n        uint k = 0;\r\n        for (uint i = 0; i < _ba.length; i++) resultBytes[k++] = _ba[i];\r\n        for (uint i = 0; i < _bb.length; i++) resultBytes[k++] = _bb[i];\r\n        for (uint i = 0; i < _bc.length; i++) resultBytes[k++] = _bc[i];\r\n        return resultBytes;\r\n    }\r\n}",
  "sourcePath": "D:\\Projects\\Hackaton\\NFTsDefi_SuperFluid\\contracts\\tokens\\ERC721Defi.sol",
  "compiler": {
    "name": "solc",
    "version": "0.7.6+commit.7338295f.Emscripten.clang"
  },
  "schemaVersion": "3.3.2",
  "updatedAt": "2021-03-18T18:43:37.850Z",
  "networkType": "ethereum",
  "devdoc": {
    "kind": "dev",
    "methods": {
      "approve(address,uint256)": {
        "details": "See {IERC721-approve}."
      },
      "balanceOf(address)": {
        "details": "See {IERC721-balanceOf}."
      },
      "baseURI()": {
        "details": "Returns the base URI set via {_setBaseURI}. This will be automatically added as a prefix in {tokenURI} to each token's URI, or to the token ID if no specific URI is set for that token ID."
      },
      "getApproved(uint256)": {
        "details": "See {IERC721-getApproved}."
      },
      "name()": {
        "details": "See {IERC721Metadata-name}."
      },
      "owner()": {
        "details": "Returns the address of the current owner."
      },
      "ownerOf(uint256)": {
        "details": "See {IERC721-ownerOf}."
      },
      "renounceOwnership()": {
        "details": "Leaves the contract without owner. It will not be possible to call `onlyOwner` functions anymore. Can only be called by the current owner. NOTE: Renouncing ownership will leave the contract without an owner, thereby removing any functionality that is only available to the owner."
      },
      "safeTransferFrom(address,address,uint256)": {
        "details": "See {IERC721-safeTransferFrom}."
      },
      "safeTransferFrom(address,address,uint256,bytes)": {
        "details": "See {IERC721-safeTransferFrom}."
      },
      "setApprovalForAll(address,bool)": {
        "details": "See {IERC721-setApprovalForAll}."
      },
      "supportsInterface(bytes4)": {
        "details": "See {IERC165-supportsInterface}. Time complexity O(1), guaranteed to always use less than 30 000 gas."
      },
      "symbol()": {
        "details": "See {IERC721Metadata-symbol}."
      },
      "tokenByIndex(uint256)": {
        "details": "See {IERC721Enumerable-tokenByIndex}."
      },
      "tokenOfOwnerByIndex(address,uint256)": {
        "details": "See {IERC721Enumerable-tokenOfOwnerByIndex}."
      },
      "tokenURI(uint256)": {
        "details": "See {IERC721Metadata-tokenURI}."
      },
      "totalSupply()": {
        "details": "See {IERC721Enumerable-totalSupply}."
      },
      "transferFrom(address,address,uint256)": {
        "details": "See {IERC721-transferFrom}."
      },
      "transferOwnership(address)": {
        "details": "Transfers ownership of the contract to a new account (`newOwner`). Can only be called by the current owner."
      }
    },
    "version": 1
  },
  "userdoc": {
    "kind": "user",
    "methods": {
      "isApprovedForAll(address,address)": {
        "notice": "Override isApprovedForAll to whitelist user's OpenSea proxy accounts to enable gas-less listings."
      }
    },
    "version": 1
  }
}